:0200000280007C
:1000000088CE0720D5290800D1290800D129080069
:10001000D1290800D1290800D129080000000000DA
:10002000000000000000000000000000990408002B
:10003000D129080000000000190508005505080036
:10004000D1290800D1290800D1290800D1290800A8
:10005000D1290800D1290800D1290800D129080098
:10006000D1290800D1290800000000004528080017
:10007000592808006D2808008128080000000000A9
:1000800000000000B9200800D1290800D12908008B
:10009000D1290800D1290800D1290800D129080058
:1000A000D129080000000000D1290800D12908004A
:1000B000D1290800D1290800D1290800D129080038
:1000C000D1290800D1290800D1290800D129080028
:1000D000D1290800D1290800D1290800D129080018
:1000E000D1290800D1290800D1290800D129080008
:1000F000D129080010B5054C237833B9044B13B14E
:100100000448AFF300800123237010BD380B072093
:10011000000000001C6D08000C4B43B10C4810B5EA
:100120000C49AFF300800C48036823B910BD0A489E
:10013000036833B97047094B002BF7D0BDE8104076
:100140001847064B002BF5D0184700BF00000000F1
:100150001C6D08003C0B07201C6D0800000000000F
:1001600008B51720144B9847144A536843F440537A
:100170005360134B80221A601A6B08221A602022E7
:100180001A601A6842F004021A605A6842F40022A7
:100190005A60D3F8202142F4807242F00102C3F881
:1001A00020214FF0FF31074A91621A6942F4C332AD
:1001B00042F0A0021A6108BD7D290800000E0E4021
:1001C0000000094000C008402DE9F04180B90C460C
:1001D0009046002A0FDD8F18084E094D30682146E1
:1001E0002B6898470134BC42F8D14046BDE8F08105
:1001F0004FF0FF38F9E78046F7E700BF5CAE072015
:1002000004AE0720F0B48CB007460E4601AC114D89
:100210000FCD0FC40FCD0FC495E8070084E8070089
:1002200001AA002352F8040BB6FBF0F0B0FBF7F084
:10023000B0F5807F07D901330B2BF3D14FF6FF7058
:100240000CB0F0BC70470A2B94BF40EA03204FF675
:10025000FF70F5E7846A080070B506460D460C6825
:1002600044B1896820460C4B984704464FF6FF730B
:1002700098420CD0686840B1A968074B98474FF680
:10028000FF73984205D044EA0044346000242046BD
:1002900070BD0446FBE700BF0502080070B40A68A1
:1002A0004B6803F00F038C8A23430C8923438C7A19
:1002B00043EA44238C7D43EA0443CC7D43EA444330
:1002C0000C7E43EA844300EB4214C4F80032CB684E
:1002D000C4F804320B69C4F80C328B7D3BB18C8BB3
:1002E0004B8B43EA044300EB4214C4F81832856C8C
:1002F0004FF001139340DB431D40CC7F04FA02F61C
:100300008C7F944044EA06442C438464446C23402C
:1003100091F8214004FA02F591F82040944044EA13
:100320000544234343640123934091F8224034B3AE
:10033000046A1C43046291F82440012C846E0CBFB3
:100340001C439C43846691F82540012C846E0CBFAD
:1003500044EA034324EA03438366032A14D9043A94
:10036000D200046FFF23934024EA030491F8233062
:1003700003FA02F222430267002070BC7047046A4D
:1003800024EA03040462D6E7D500C36EFF24AC4020
:1003900023EA040391F82320AA401A43C266EBE73C
:1003A0000B69934202D24FF6FF7070470B68CA6028
:1003B00000EB4310C0F8082200207047012303FA25
:1003C00001F141607047012303FA01F18160704738
:1003D00000F1080343604FF0FF328260C3600361A5
:1003E00000230360704700230361704743685A6825
:1003F0004A6042688A605A68916059604160086149
:10040000036801330360704710B40C68B4F1FF3F18
:1004100015D000F10803C2681268944204D35B68E7
:100420005A6812689442FAD25A684A6091608B60A6
:100430005960086103680133036010BC70470369A9
:10044000F2E7436882689A60836842685A60036989
:100450005A68904204BF82685A60002202611A689A
:10046000013A1A601868704703480068006880F312
:10047000088862B600DF00BF08ED00E04FF080732F
:1004800040F8043C40F8081C002340F80C3C40F8BD
:10049000202C403870470000064B19680868B0E807
:1004A000F00F80F309884FF0000080F311884EF0C0
:1004B0000D0E704760AB07204FF08052014B1A6061
:1004C000704700BF04ED00E0EFF311804FF0A00192
:1004D00081F311887047002008B5034B9847034A01
:1004E00013680133136008BDC90408002C010720FC
:1004F00080F311887047000008B5054A1368013B76
:10050000136003B108BD0020024B9847FAE700BF13
:100510002C010720F1040800EFF309800C4B1A6846
:1005200020E9F00F10602DE908404FF0A00080F3A3
:10053000118800F0C7FE4FF0000080F31188BDE87D
:10054000084019680868B0E8F00F80F30988704720
:1005500060AB072008B54FF08052054B1A60054B81
:100560009847054B98470020044B984708BD00BFAB
:1005700004ED00E0C9040800890F0800F104080038
:10058000034A044B1A600722043B1A60704700BFFD
:100590001F48010014E000E010B5094B1A6842F44E
:1005A00070021A601A6842F070421A60054B984750
:1005B0000024054B1C60054B9847204610BD00BF2A
:1005C00020ED00E0810508002C01072069040800E7
:1005D00010B4134A00E01A4613688342FBD35168F3
:1005E0005418A04209D041684418A3420AD00360BD
:1005F000904218BF106010BC7047406801445160C1
:100600001046F0E7074C2468A34206D05B68194403
:10061000416013681B680360EAE70360E8E700BF16
:1006200058AB0720540B072038B504462A4B98478F
:100630002A4B1B688BB1002C47D004F1100212F03A
:10064000070F1CBF22F007020832511E49F6FE7345
:1006500099423CD822490C6816E0214A214B13608C
:100660000021516049F6F07298181C4D286049F637
:10067000F475595199505A6018601B4A1368103B21
:100680001360D8E721461C4663689A4202D9236862
:10069000002BF7D1114B1B689C421AD00D68103506
:1006A00023680B6063689B1A202B08D80E4A1368D6
:1006B00061685B1A13600D4B9847284638BDA01837
:1006C000436062600A4B9847F0E70025F3E7002596
:1006D000F1E70025EFE700BF590F0800540B072092
:1006E00058AB0720580B072030010720B110080035
:1006F000D105080080B110B50446084B9847084A58
:1007000054F80C3C11680B441360A4F11000054B25
:100710009847054B984710BD704700BF590F080018
:1007200030010720D1050800B110080010B50446BB
:10073000036C5BB903681BB1A36B0133A36310BDEA
:100740004068124B984700236360F5E76AB91A4680
:1007500080680F4B9847A368226C1344A3606268BB
:100760009342E9D32368A360E6E71A46C068084BC2
:100770009847226C5242E3681344E36021688B423D
:10078000DAD263681A44E260D6E700BFF1150800C8
:10079000193C080038B50346006858B11A6CDC688B
:1007A0001444DC605D68AC4228BFD8600846D96854
:1007B000014B984738BD00BF193C0800F8B5044606
:1007C0001F4B9847A36C002B14DD636A93B104F1AF
:1007D00024061C4D1C4F07E0A36C013BA364A36CD3
:1007E000002B07DD636A2BB13046A8470028F3D001
:1007F000B847F1E74FF0FF33A364144B9847104B11
:100800009847636C002B14DD236993B104F1100643
:100810000C4D0D4F07E0636C013B6364636C002B70
:1008200007DD23692BB13046A8470028F3D0B8472D
:10083000F1E74FF0FF336364044B9847F8BD00BF06
:10084000D90408000914080039150800F904080043
:1008500038B508B30D460446174B98472268216CFB
:10086000E36B03FB01F3D01860600020A063A2607B
:100870005B1A1344E3604FF0FF336364A36495B9DC
:1008800023692BB104F110000C4B9847012807D0C5
:100890000B4B9847012038BD0A4B984700BFFDE736
:1008A000094B9847F4E704F11000084DA84704F1FC
:1008B0002400A847ECE700BFD90408000914080089
:1008C000F9040800C9040800B9040800D1030800AD
:1008D000F8B5D8B10D461746064650200D4B98473F
:1008E000044698B105FB06F001300A4B984720609A
:1008F00048B1E663256401212046074B984784F8F8
:100900004D702046F8BD2046044B9847044B98474D
:1009100000BFFDE72906080051080800F506080099
:10092000C90408002DE9F04F85B0019248B188460E
:100930009946044649B10027384EDFF80CA1384DDE
:100940002EE0384B984700BFFDE7036C1BB1354BD9
:10095000984700BFFDE70027EEE74A46414620469C
:10096000314B9847636A2BB92D4B9847012005B04E
:10097000BDE8F08F04F124002C4B98470128F3D1F7
:100980002B4B9847F0E7264B98470020EFE702A84B
:10099000D0470FE02046274B9847274B9847012721
:1009A000B047A26BE36B9A42D7D3019B002BEAD0EE
:1009B000002FECD0A847214B9847B047636CB3F1A8
:1009C000FF3F04BF00236364A36CB3F1FF3F04BF88
:1009D0000023A364A84701A902A8194B9847A8B906
:1009E000B047D4F838B0E76BA847BB45D2D10199DE
:1009F00004F11000134B984720460E4B98470E4BBE
:100A000098470028CBD10A4B9847C8E72046094BA6
:100A10009847094B98470020A9E700BFD904080070
:100A2000F9040800C90408002D070800091408008B
:100A3000B9040800BD070800B1100800590F0800EC
:100A4000B5140800651308008D1408002DE9F04165
:100A500090B10E4615469846044689B11B4B9847FF
:100A60000746A26BE36B9A4211D300243846184B19
:100A700098472046BDE8F081144B984700BFFDE73A
:100A8000036C002BEAD0114B984700BFFDE74246AC
:100A9000314620460F4B9847A36CB3F1FF3F0AD174
:100AA000636A6BB104F124000B4B984750B15DB100
:100AB00001242C60DAE7A36C0133A3640124D5E799
:100AC0000124D3E70124D1E70124CFE7C9040800BA
:100AD000F10408002D070800091408002DE9F0476B
:100AE00084B0019248B188469946044649B100272E
:100AF000464EDFF84CA1464D4BE0464B984700BFB1
:100B0000FDE7036C1BB1434B984700BFFDE700278F
:100B1000EEE7E568414620463F4B9847B9F1000FA4
:100B200017D1A36B013BA363236813B93B4B9847D1
:100B3000606023693BB104F11000394B98470128EC
:100B400001D1384B9847324B9847012004B0BDE89B
:100B5000F087E560636A002BF5D004F12400304B88
:100B600098470028EFD02F4B9847ECE7284B984741
:100B70000020EBE702A8D04714E0B04760682A4B9A
:100B80009847A8472CE02046284B9847284B984781
:100B90000127B047A36B002BBBD1019B002BE5D0F5
:100BA000002FE7D0A847234B9847B047636CB3F1B9
:100BB000FF3F04BF00236364A36CB3F1FF3F04BF96
:100BC0000023A364A84701A902A81B4B9847B0B90A
:100BD000B047A76BA847002FD5D12368002BCCD0F6
:100BE000019904F12400154B984720460F4B984774
:100BF0000F4B98470028CBD10A4B9847C8E72046AF
:100C00000A4B98470A4B984700209FE7D9040800F1
:100C1000F9040800C90408009507080045150800F4
:100C200009140800B904080071150800BD07080080
:100C3000B1100800590F0800B5140800651308002A
:100C40008D14080038B504460D460E4B9847636C6A
:100C5000B3F1FF3F04BF00236364A36CB3F1FF3F14
:100C600004BF0023A364084B9847A36B1BB1204625
:100C7000064B984738BD294604F12400044B984799
:100C8000F5E700BFD9040800F9040800BD07080013
:100C9000C513080010B50F4B1B6858600E4B1B683E
:100CA00098420ED304460D4B18680A4B196804315C
:100CB0000B4B98470B4B1B689C423CBF094B1C607D
:100CC00010BD094B1868034B19680431044B984751
:100CD00010BD00BF60AB07205CAC072064AB0720F1
:100CE000090408003401072068AB07202DE9F84FFC
:100CF0000A9FDDF82C900C9E48B1884615469B460D
:100D00008246042F07D9604B984700BFFDE75E4B32
:100D1000984700BFFDE74C205C4B984704460028ED
:100D200054D0002E48D00663AA00A5213046584B67
:100D3000984705F18045013D236B03EB850323F0C4
:100D400007050A22414604F13400524B984700231C
:100D500084F83D30E762A76404F1040840464E4E33
:100D6000B04704F11800B0472461C7F10503A3613F
:100D700064625A4651462846484B9847206010F016
:100D8000070F27D1B9F1000F01D0C9F80040444B3B
:100D90009847444A136801331360434B1B68EBB117
:100DA000424B1B68002B40D13F4B1B68DB6A9F42C4
:100DB00024BF3D4B1C6038E0A800344B98470646E2
:100DC00020630028B0D12046394B98474FF0FF30C0
:100DD000BDE8F88F2C4B984700BFFDE7324B1C60F5
:100DE0001368012B21D1334E3046334DA84706F10D
:100DF0001400A84706F12800A84706F13C00A847C0
:100E000006F15000A847DFF8E4904846A8472B4E6B
:100E10003046A8472A48A8472A48A8472A48A8474A
:100E20002A4BC3F800902A4B1E60E06A294B1B68CE
:100E3000984284BF274B1860274A13682364013304
:100E40001360264B1B68984284BF244B186000EB4C
:100E500080004146174B03EB8000214B9847214B04
:100E60009847124B1B684BB10F4B1B68DB6A9F42C4
:100E700007D91D4B98470120BDE8F88F0120BDE838
:100E8000F88F0120BDE8F88FC90408002906080082
:100E9000053D08009D3F0800E70308007D040800A9
:100EA000D9040800D0AB072060AB072030AC072086
:100EB000F50608006CAB0720D103080000AC072042
:100EC0001CAC072048AC072034AC072064AB0720DB
:100ED00068AB0720E8AB0720DCAB0720E4AB0720BA
:100EE000ED030800F9040800B9040800ECAB072082
:100EF00010B584B0002303930293019300938222E0
:100F00000D490E480E4CA047012802D080B104B014
:100F100010BD0C4B98470128F8D10B4B9847012284
:100F20000A4B1A6000220A4B1A600A4B9847EEE7F8
:100F3000054B984700BFFDE7B06A08003D12080066
:100F4000ED0C0800E9160800C904080030AC0720C1
:100F50005CAC072099050800024A1368013313604E
:100F6000704700BFD8AB072010B5044B9847044B1F
:100F70001C68044B9847204610BD00BFD9040800E8
:100F80005CAC0720F90408003D4B1B68002B6FD1B7
:100F90002DE9F0413B4B1A6801321A601B68ABB96E
:100FA000394B1B681B68002B28D1374B1968374A0F
:100FB00010681860116036490A6801320A601B68BF
:100FC0001B68FBB94FF0FF32324B1A602D4B1A6889
:100FD000304B1B689A4250D32B4B1B681B68CBB11C
:100FE000294B1B68DB68DC686368264A12689342F9
:100FF00016D8294E294FDFF8B4802FE0284B9847A8
:1010000000BFFDE7204B1B68DB68DB685A68214B9B
:101010001A60DBE74FF0FF321E4B1A60BDE8F0812B
:101020001C4A1360BDE8F081E06A3B68984288BFC3
:10103000386000EB8000294608EB8000194B984788
:10104000114B1B681B68002BE4D00F4B1B68DB683F
:10105000DC6863680B4A12689342E1D8251D284674
:10106000B047A36A002BDFD004F11800B047DBE7DC
:101070000D4A1368013313607047BDE8F08100BF6B
:10108000D8AB07205CAC072064AB072068AB072017
:1010900018AC07203401072043040800E4AB072004
:1010A000C9040800ED030800D4AB07206CAB07208F
:1010B0002DE9F8432F4B1B681BB92F4B984700BFF6
:1010C000FDE72E4B98472B4B1A68013A1A601B68B4
:1010D000002B4DD12A4B1B682BB10024DFF8CC80AC
:1010E000284F294E23E00024284B98472046BDE88E
:1010F000F883D8F80C30DD6805F11800B84705F121
:1011000004094846B847E86A3368984288BF3060A7
:1011100000EB800049461E4B03EB80001D4B9847B7
:101120001D4B1B68EA6ADB6A9A4228BF0124D8F883
:101130000030002BDDD1194B1B6893B1174B1B6896
:1011400043B1174D154CA8472368013B2360236822
:10115000002BF8D10022134B1A60134B984701243F
:10116000C2E7012CF6D00F4B1B68012BBCD1F1E775
:101170000024B9E7D8AB0720C9040800D904080047
:10118000D0AB072043040800E4AB0720F9040800B3
:101190006CAB0720ED03080060AB0720D4AB072041
:1011A000890F080014AC0720B90408001CAC072004
:1011B00038B530B10C46054639B9184B984700BFD1
:1011C000FDE7164B984700BFFDE7154B98472B6886
:1011D0001C44144A126893420AD9A3420ED9114BF7
:1011E0001B682C609C420FD80F4B984740B138BD0C
:1011F000A34208D80B4B1B689C4204D82C60F3E731
:101200000A4B984738BD2C60094B18680430094BCD
:1012100098472046084B9847E6E700BFC9040800F6
:10122000590F08005CAC0720B1100800B904080091
:1012300060AB072043040800950C080080B5164DEC
:10124000DFF87880154E24E0154B1B68012B1ED863
:101250002B68002BF8D0C0473468B847002CF7D073
:10126000104B9847F368DC68201D0F4B98470F4AD6
:101270001368013B13602B68013B2B600C4B9847B4
:10128000206BDFF83C90C8472046C847E0E7094B91
:101290009847094FDCE700BFE0AB072048AC0720C8
:1012A0006CAB0720D904080043040800D0AB07202A
:1012B000F9040800B9040800B1100800590F08002B
:1012C000F5060800214B1B68EBB910B5204B1B68D5
:1012D00003EB83039B001F4AD358C3B91C4B1B6805
:1012E0006BB11B4A1B491368013B1360136803EB86
:1012F000830351F8233053B91368002BF3D1164BF5
:10130000984700BFFDE70122144B1A607047104B4D
:101310001B68104A9900C81802EB80004468646892
:101320004460194402460832944209D003EB830317
:10133000084A02EB83035B68DA68094B1A6010BD48
:101340006068044A02EB81025060EFE7D8AB0720E7
:10135000E4AB07206CAB0720C904080014AC0720DD
:1013600060AB072038B590B10C460E4D2968183196
:101370000D4B9847286804300C4B9847B4F1FF3F59
:1013800009D00B4B186820440A4B984738BD0A4BCC
:10139000984700BFFDE7296804310848084B984783
:1013A00038BD00BF60AB07200904080043040800F3
:1013B0005CAC0720950C0800C904080034AC072079
:1013C000ED03080038B578B10D46094C2168183195
:1013D000084B984720680430074B9847074B18681C
:1013E0002844074B984738BD064B984700BFFDE798
:1013F00060AB0720ED030800430408005CAC072045
:10140000950C0800C904080038B5C368DC681CB333
:1014100004F118052846154B9847154B1B68FBB976
:10142000251D2846114B9847E06A124B1B689842CD
:1014300084BF104B186000EB800029460E4B03EB75
:1014400080000E4B98470E4B1B68E06ADB6A98429F
:1014500034BF0020012038BD0A4B984700BFFDE78C
:1014600029460948054B9847EDE700BF43040800AB
:10147000D8AB0720E4AB07206CAB0720ED030800D6
:1014800060AB0720C90408001CAC072008B530B1C8
:10149000054A12680260054A1268426008BD044BA2
:1014A000984700BFFDE700BF18AC07205CAC0720E1
:1014B000C904080038B5E8B10D460446F1B1184B2F
:1014C00098472B68B3F1FF3F26D0164A126821686F
:1014D000914204D0144A1268616891421ED9124A9E
:1014E00012686168521A93420CD801240F4B984736
:1014F000204638BD0E4B984700BFFDE70C4B984780
:1015000000BFFDE7084A1268521A9B1A2B6020465A
:10151000084B98470024E9E70024E7E70124E5E7C2
:10152000D904080018AC07205CAC0720F9040800B7
:10153000C90408008D1408000122014B1A6070478D
:1015400014AC0720014B1868704700BF60AB072040
:10155000054B1B6833B1054B1B68002B0CBF0120EA
:10156000022070470020704730AC0720D8AB07201E
:10157000002831D038B50546C36A18490968C96AD8
:101580008B4211D215490968C96AC1F1050181610F
:1015900003EB8303124901EB83034169994204D0B1
:1015A0000E4B1B68DB6AC36238BD041D20460D4B21
:1015B00098470A4B1B68D86AE8620B4B1B68984235
:1015C00084BF094B186000EB80002146044B03EBFD
:1015D0008000064B984738BD704700BF60AB0720BE
:1015E0006CAB072043040800E4AB0720ED030800C0
:1015F000E8B138B50446C16A826C914216D0051D27
:1016000028460B4B9847A06CE062C0F10503A3612C
:10161000084B1B68984284BF064B186000EB8000A3
:101620002946054B03EB8000044B984738BD7047B3
:1016300043040800E4AB07206CAB0720ED0308006F
:1016400008B54160006191420CD8D21A83699A4270
:1016500001D3012008BD011D094B1868094B9847AB
:10166000002008BD9A4201D2994206D2011D064BC4
:101670001868044B9847002008BD012008BD00BF32
:1016800064AC07200904080060AC072070B50D4B5E
:1016900098470D4B1B6813B10C4B984770BD0C4D10
:1016A00028460C4EB0470C4C2046B0470B4B1D60F3
:1016B0000B4B1C6000220C2105200A4B9847024B63
:1016C0001860E9E7D904080094AC0720F904080081
:1016D00068AC0720D10308007CAC072060AC072071
:1016E00064AC0720D108080010B584B00B4B9847B4
:1016F0000B4B1B6873B100230393029301930422E5
:1017000000924FF4827207490748084CA04708B17D
:1017100004B010BD064B984700BFFDE78D160800CA
:1017200094AC0720B86A080039180800ED0C0800CE
:10173000C904080030B585B00F4C2568D5B11C46EA
:101740000191029203903BB10023224601A9284651
:101750000A4CA04705B030BD094B984701284FF00F
:1017600000030CBF089A1A4601A903480068054CFB
:10177000A047EFE70020EDE794AC07204D0A0800F2
:1017800051150800250908002DE9F04782B081466F
:10179000214B98478046214B1B68984215D3002364
:1017A000C9F800301D4BC3F80080404602B0BDE8C8
:1017B000F087002100910B4652462046184CA04766
:1017C00028B9184B984700BFFDE7174E174F3368ED
:1017D0001A68C2B1DA68D2F800A0DB68DC68251D9F
:1017E0002846B847636A20469847E369012BEED143
:1017F000A36953449A45DCD263602461294630686A
:101800000B4B9847E3E70B4A1068074908601360E1
:101810000123C9F80030C5E7690F080090AC072024
:1018200035170800C904080060AC0720430408000D
:101830000904080064AC07202DE9F04186B0DFF808
:1018400068814D4B1B681A68002A00F08980DB68AC
:101850001D684A4B984703A8494B98470646039B87
:10186000002B40F08680A8420FD2A91B454B186878
:10187000454B9847454B984708B9454B984702A8B0
:101880003F4B984707463F4E36E0404B98473A4B10
:101890001B68DB68DC68201DC047E369012B14D19D
:1018A000A1692B463246294420463A4EB0470128CA
:1018B0000BD1002100910B462A462046364DA84701
:1018C00018B9364B984700BFFDE7636A2046984732
:1018D000D5E70025C9E70499A16131B13B463A46F5
:1018E000394420462B4CA04706E02C4B984700BFBC
:1018F000FDE720462A4B98472A4D00231A4603A9A4
:101900003068A84700289CD0059C1CB163690BB1C6
:10191000201DC047039B022BDDD0032BE9D0002BF9
:10192000EBD10499A0690B463A4601442046194D73
:10193000A8470128E0D1636A20469847E369012B54
:10194000DAD1A269002100910B4604980244204696
:10195000114CA0470028CFD1104B984700BFFDE79E
:10196000064B984703A8064B98470646039B002B57
:10197000AFD0064B984782E760AC0720590F0800AC
:101980008917080094AC0720450C0800B110080026
:10199000B90408004116080035170800C9040800FA
:1019A000F5060800DD0A08004304080038B54FF0CA
:1019B000805158200B4B98470B4907250D60002399
:1019C0000B818B720B224A6041F64C520A61CB604C
:1019D000064C2046064B984729462046054B98471B
:1019E00038BD00BF1926080030AE0720004009406E
:1019F0009D020800BD03080038B54FF08051572004
:101A00000B4B98470B4900230B818B720B224A60CA
:101A100041F64C520A61CB6006250D60064C20460B
:101A2000064B984729462046054B984738BD00BFCE
:101A30001926080008AE0720004009409D02080052
:101A4000BD03080030B585B024200D4B98470D4CE0
:101A5000072120460C4DA84706212046A8470B4BDE
:101A60000193002302930A4B039301A92046094BDB
:101A70009847094B9847094B984705B030BD00BFC0
:101A80007D29080000400940C703080040420F00BC
:101A900000BD010559020800AD190800F919080038
:101AA00008B540F69802824228BF0246B2F5487F48
:101AB00038BF4FF4487202490248034B984708BDAB
:101AC00030AE072000400940A103080008B540F6E9
:101AD0009802824228BF0246B2F5487F38BF4FF4D1
:101AE000487202490248034B984708BD08AE0720D8
:101AF00000400940A1030800034BDB6C034A136854
:101B000001331360704700BF000E0E4098AC0720F1
:101B1000034BDB6C034A136801331360704700BF4B
:101B200000140E409CAC0720014B1868704700BFA2
:101B300098AC0720014B1868704700BF9CAC072089
:101B40002DE9F04182B00B201C4CA0470E20A0478D
:101B50001B4D01224FF4004128461A4EB0471A4C43
:101B6000012211462046B0474FF400472F6201265C
:101B70002662C5F88470C4F88460144B0093702307
:101B80003A460B212846DFF85480C047394628469C
:101B90000F4DA8470F4B0093702332460E2120466D
:101BA000C04731462046A8470B4B4FF400621A60ED
:101BB0004FF480421A6002B0BDE8F0817D29080030
:101BC000000E0E408725080000140E40F91A080088
:101BD0000D260800111B080000E100E0D5270800D1
:101BE00010B503A3D3E90023034CA04710BD00BFE9
:101BF000ECC9631ADCA54C40F53508002DE9F84323
:101C000090469946154CDDE90823A04706460F4645
:101C1000134BC3E90067DDE90A2340464946A04764
:101C200004460D460F4BC3E90045DFF844803246B9
:101C30003B4630463946C04706460F4622462B46AD
:101C400020462946C04702460B4630463946064CD8
:101C5000A047064B9847BDE8F88300BF8D320800C7
:101C6000A0AC0720A8AC0720913208004D30080036
:101C7000F5350800000000002DE9F843904699462C
:101C8000534EDDE90823B04704460D46514BC3E9E6
:101C90000045DDE90A2340464946B04706460F465F
:101CA0004D4BC3E900670022002320462946DFF898
:101CB0004081C04728B10022002330463946C04742
:101CC00088B90022002320462946DFF82881C04732
:101CD00080B122462B4630463946404CA047404B07
:101CE0009847BDE8F8833F483F4B984700203F495D
:101CF000BDE8F8830022002320462946DFF8FC8057
:101D0000C047E0B90022002320462946DFF8EC80D6
:101D1000C04758BB0022002320462946344CA04728
:101D200000283FD00022002330463946314CA047DE
:101D300000283CD020A1D1E90001BDE8F8830022B1
:101D4000002330463946DFF8B880C04770B12246DC
:101D50002B4630463946214CA047214B984718A3C3
:101D6000D3E90023244CA047BDE8F88300220023D8
:101D700030463946DFF88480C04720B912A1D1E946
:101D80000001BDE8F88322462B4630463946134C05
:101D9000A047134B98470AA3D3E900230C4CA04754
:101DA000BDE8F88308A1D1E90001BDE8F88306A1E8
:101DB000D1E90001BDE8F8831E264454FB21F93F18
:101DC0001E264454FB2109401E264454FB21F9BF22
:101DD0008D320800A0AC0720A8AC072049380800C5
:101DE000012D0800C06A0800F13B08000000F0BFA8
:101DF000C53A0800153B080091320800D93A08009E
:101E0000013B08000000000010B5074B984704A3F1
:101E1000D3E90023054CA047054B984780B210BD7D
:101E2000BC7493180456F63F293508004938080059
:101E3000553B080070B504460E46114B98470546C1
:101E4000104B9847281A80B20F4D28800F4B1978F5
:101E500001FB00F189B20E4B1980601A80B20D4B64
:101E600018800D4C314421800C4B984720880C4B36
:101E70009847B5F900100B480B4B984770BD00BF51
:101E8000291B0800351B0800B4AC072038010720C7
:101E9000B6AC0720B2AC0720B0AC0720CD1A0800C2
:101EA000A11A0800D86A0800F13B080008B501280B
:101EB0000CD0B0F1FF3F07BF4FF4AF6140F2276095
:101EC00040F2DC510846054B984708BD40F22761B7
:101ED0004FF4AF60014B984708BD00BF351E0800A6
:101EE0002DE9F04F87B00026494F0024494DCDE938
:101EF00002454FF00008DFF85C91CDE900893246D9
:101F00003B4620462946DFF850A1D047424B984730
:101F10003DA3D3E90023DFF844A1D047DFF840B167
:101F2000D8471FFA80FACDE90245CDE9008932464B
:101F30003B4620462946394CA047D84780B2384B0B
:101F4000984780464FF00009364F374D374E25E011
:101F50003748384CA04751463748A04700213748FA
:101F6000A0470120364B984714E03648314CA04733
:101F700051463148A04700213048A0474FF0FF307C
:101F80002F4B984706E040F2DC510846B0476423E7
:101F9000013BFDD1042105A82B4B9847B84705907C
:101FA000A84708EB0A04A042EDDA284B9847844280
:101FB000E9DDA847824506DD244B9847824502DDCE
:101FC000B9F1000FC4D0A847824506DA1F4B9847E5
:101FD000824502DAB9F1000FC7D01D48154CA04761
:101FE00051461548A04700211448A04740F201710E
:101FF00040F2D960B0476423013BFDD14FF00109A5
:10200000C8E700BFAFF3008046B6F3FDD4780E40BA
:102010000000794000006940E11B0800FD1B08003A
:10202000091E0800690F0800291B0800351E08005A
:10203000E06A0800F13B0800E46A0800F46A08005E
:10204000AD1E0800046B0800B1110800351B080024
:10205000B46A080000805640791C0800493808001E
:10206000553B080030B583B0034D044CA8470190A0
:102070000A2101A8A047F9E7690F0800B11108007B
:10208000014B185C704700BF3C010720436913F007
:10209000020F1DBFC1F30801C1610020012070477C
:1020A000436913F0010F05D08369C3F308030B6084
:1020B000002070470120704700B583B001220DF168
:1020C00007011048104B984772B6BFF35F8F00228C
:1020D0000E4B1A700E4B1B789DF807100D4AD15409
:1020E0009B2B0BD001330A4A13700122074B1A7045
:1020F000BFF35F8F62B603B05DF804FB0022044BB0
:102100001A70F2E700800940452308007E0107208D
:1021100054AD0720B8AC0720F0B583B004460D4697
:1021200000230193204B98420DD0204B984212D0AF
:102130001F4B984219D01F4B9C4220D01E4B9C42F3
:1021400027D003B0F0BD1F461C4E29463846B04785
:102150000028FAD1EFE71F46194E01A93846B047CB
:102160000028FAD1019B2B70E8E71E46144C01A908
:102170003046A0470028FAD1019B2B70E1E71E46AC
:102180000F4C01A93046A0470028FAD1019B2B70C3
:10219000D7E71E460A4C01A93046A0470028FAD1CD
:1021A000019B2B70CDE700BF00080E400080094066
:1021B00000C0094000000A4000400A4053240800C3
:1021C000A120080070B50C461E4B98420DD01E4B46
:1021D000984213D01D4B984219D01D4B98421FD0E6
:1021E0001C4B984225D0002070BD1E461A4D21463A
:1021F0003046A8470028FAD1012070BD1E46174D71
:1022000021463046A8470028FAD1012070BD1E465D
:10221000124D21463046A8470028FAD1012070BD52
:102220001E460E4D21463046A8470028FAD101200F
:1022300070BD1E46094D21463046A8470028FAD1F8
:10224000012070BD00080E400080094000C0094018
:1022500000000A4000400A40432408008D20080086
:1022600030B585B00820154DA847154C154B1C609E
:10227000154A164B1A60164A164B1A60164B0193F4
:102280004FF4E13302934FF4006303930820A8470F
:1022900001A92046114B9847114D2B6800219868E1
:1022A000104CA0472B6800215868A0470E480F4CDF
:1022B000A0470F48A04705B030BD00BF7D290800EA
:1022C00000080E405CAE0720C521080058AE07206C
:1022D0001921080004AE072000BD01050D240800E7
:1022E00088010720A13D0800086B0800F13B0800A9
:1022F000186B08000138022815D82DE9F0410E4668
:1023000014469AB10D46DFF838800C4FD8F800001B
:1023100015F8011B3B68984700280ADBA81B013C05
:10232000F4D1BDE8F0814FF0FF3070471046BDE8B2
:10233000F0814FF0FF30BDE8F08100BF58AE0720BC
:102340005CAE0720002A51D02DE9F04F83B005463E
:102350000C4692468A44264FDFF8A890254E1DE091
:1023600021463846C8470028FAD121E09B46DFF8CD
:10237000988001A95846C0470028FAD1019B2370D4
:1023800019E09B46DFF8808001A95846C047002825
:10239000FAD1019B23700134544523D000230193CB
:1023A000BD42DDD0144B9D42E0D0144B9D42E8D09D
:1023B000134B9D420BD0B542EDD1DFF84C8001A903
:1023C0003046C0470028FAD1019B2370E3E79B46C3
:1023D000DFF8348001A95846C0470028FAD1019B94
:1023E0002370D8E7002003B0BDE8F08F00207047CD
:1023F00000080E4000400A400080094000C009402B
:1024000000000A4053240800A120080010B4AC23A7
:1024100003600B684A68B3FBF2F31B095C1E4FF6BE
:10242000FE7294420BD803628B68436040F2022331
:10243000C0F8203150230360002010BC70470120F9
:10244000FBE7436913F0020F1ABFC16100200120AE
:102450007047436913F0010F1DBF83690B700020A3
:102460000120704710B50E480E4B98473E210020C2
:102470000D4B98470D4CA0470028FCD00C4B9847BB
:102480000C4A0D4B9A620D4CA0470028FCD010203E
:102490000B4B98470B4B98470148024B984710BD90
:1024A00000BD0105A5000720F92808004D290800F6
:1024B0005D290800013F0D2000060E406D2908002F
:1024C000952808006D2A080010B54FF40042164BFD
:1024D0005A600B20154CA0470C20A0470D20A047A8
:1024E0000E20A0474FF060513B20114CA0474FF009
:1024F00060515520A0474FF060515620A0470D492C
:102500006820A0470C495C20A0470C4A4FF440715A
:102510000B480C4B98474FF000612B20A0474FF021
:1025200000612A20A04710BD501A0E407D290800E6
:102530001926080079000028010000280100000881
:10254000000E0E40E92608004264B1F1805F16D00B
:102550000BD849B1B1F1006F05D1036F016F0B408A
:1025600023EA0203036742607047B1F1405FFBD08A
:10257000B1F1605FF8D0B1F1205FF4D17047036F23
:1025800013430367EFE7416412F0010F14BF416684
:10259000016612F00A0F14BF0162416212F0020FCD
:1025A00007D112F0080F18BFC0F884104161016014
:1025B0007047C0F88010F9E710B4019C416444B939
:1025C000016643B1016542B941630161016010BC1C
:1025D00070474166F5E74165F5E70163F5E712F0FD
:1025E000100F10D0C0F8B01012F0200F14BFC0F8B8
:1025F000D410C0F8D01012F0400F14BFC0F8C010B3
:10260000C0F8C4107047C0F8B41070470164704738
:10261000C06C7047806C704770B582B00D4643093E
:1026200003F5001303F207735C0201F0F043B3F10A
:10263000205F31D016D8B3F1006F1BD0B3F1805FAB
:1026400016D100F01F000126864032464FF080511F
:102650002046224B984715F0010F14BF6666266688
:10266000012017E0B3F1405F21D0B3F1605F1ED0CD
:1026700000200FE000F01F000126864032464FF098
:1026800000612046154B984715F0010F14BF666690
:102690002666012002B070BD00F01F0101262A4607
:1026A00006FA01F120460E4B98473046F2E705F056
:1026B000605200F01F01012605EA06030093C5F3EE
:1026C0008003B2F1605F14BF0022012206FA01F11B
:1026D0002046044CA0473046DCE700BF49250800EF
:1026E00087250800B925080070B582B005460E465A
:1026F000144602F0F043B3F1205F27D011D8B3F1B4
:10270000006F16D0B3F1805F11D10A464FF08051AF
:10271000194B984714F0010F14BF6E662E66012006
:1027200012E0B3F1405F15D0B3F1605F12D000202A
:102730000AE00A464FF000610F4B984714F0010F72
:1027400014BF6E662E66012002B070BD0B4B984719
:102750000120F9E704F0605204F001030093C4F390
:102760008003B2F1605F14BF002201223146284687
:10277000034CA0470120E7E749250800872508000A
:10278000B92508002DE9F041044688460E4B9847CC
:10279000054620460D4B9847054013D00C4C04F1DC
:1027A000600603E0B4420DD010345DB120684045AE
:1027B000F8D161682942F5D0E3689847636825EA53
:1027C0000305EFE7BDE8F081112608001526080093
:1027D00058AD0720F8B5184C2668062E29D84FF0BA
:1027E000000C6446154F04E00134E4B2A446A6424E
:1027F00009D3A64625017D598D42F5D107EB041575
:102800006D689542F0D10D4D4FEA0E1E05EB0E049A
:1028100045F80E106260A3600699E16001366645D6
:1028200004BF05490E6011461A46054B9847002023
:10283000F8BD0120F8BD00BFC8AD072058AD072086
:10284000DF25080008B50B210148024B984708BD59
:10285000000E0E408527080008B50C210148024BE8
:10286000984708BD00100E408527080008B50D21C7
:102870000148024B984708BD00120E40852708000A
:1028800008B50E210148024B984708BD00140E40C0
:1028900085270800174A136B23F070031843106351
:1028A000936E13F0080F0AD14FF4006311498A6E3A
:1028B00012F0080F03D1013BF9D1012070470D4AF6
:1028C000136B23F0030343F002031363936E13F0BF
:1028D000080F0AD14FF4006306498A6E12F0080F00
:1028E00005D1013BF9D1012070470020704700203D
:1028F000704700BF00060E40C8B9114A136A0902AA
:1029000089B223F45C1323F0030343F45C1343F014
:1029100001030B431362936E13F0010FFBD0084ABF
:10292000136A43F09B7343F4803313627047044986
:102930000B6A044A1A40044B13430B62704700BFF2
:1029400000060E40FCFFC8FE02003701024B986EE5
:1029500000F48030704700BF00060E404FF0005278
:10296000014B9A62704700BF00060E40024B986E02
:1029700000F00200704700BF00060E402C281ED851
:102980001F280CD8114B9A6901238340934318D018
:10299000012303FA00F00D4B186100207047203826
:1029A0000A4BD3F808210123834093430BD0012322
:1029B00003FA00F0054BC3F8000100207047012026
:1029C0007047002070470020704700BF00060E408F
:1029D000FEE7000008B51C4B1C4A9A4210D01C4B65
:1029E000194A9A420CD2013B9B1A23F00303043389
:1029F0001344164951F8040B42F8040B9A42F9D1DA
:102A0000144B154A9A420AD2013B9B1A23F0030346
:102A100004331344002142F8041B9342FBD10F4BB3
:102A200023F0604222F07F020D498A6003F1604387
:102A3000B3F5801F03D28B6843F000538B60094BC2
:102A40009847094B9847FEE7000007201C6D0800D7
:102A5000380B072088AE0720380B0720000008003D
:102A600000ED00E0A13B0800D52B08003D4B1B6B9F
:102A700003F00303032B0ED8DFE803F0021C383801
:102A8000394B5B6913F0800F14BF4FF400424FF4D1
:102A9000FA42364B1A60334B1B6B03F07003702BFA
:102AA00057D0304B1A6B3149C2F302120B68D34036
:102AB0000B6070472B4B1B6A13F0807F03D02C4AAE
:102AC0002A4B1A60E7E72B4A284B1A60254B1B6AF2
:102AD00003F07003102B05D0202BDCD1244A234BAC
:102AE0001A60D8E7244A214B1A60D4E71D4B1B6AB1
:102AF00013F0807F0CD01E4A1C4B1A60194B1B6BC5
:102B000003F00303022B16D01C4A184B1A60C2E7CD
:102B1000184A164B1A60134B1B6A03F07003102BF4
:102B200005D0202BEAD1124A104B1A60E6E7124A70
:102B30000E4B1A60E2E70B4A916A926A0B48C1F3A6
:102B40000A41036801FB0333D2B2B3FBF2F3036023
:102B5000A1E7064A13680A49A1FB03135B08136047
:102B6000704700BF00060E40101A0E40800107207B
:102B7000001BB70000093D0000127A00001C4E0E39
:102B8000ABAAAAAA0A4B1B6853B1094B1B681A18B7
:102B90000849914208DB1046054A10601846704704
:102BA000054A034B1A60F0E74FF0FF30704700BF53
:102BB000CCAD0720FC7F082088CE07204FF0FF30E7
:102BC00070474FF400534B6000207047012070475E
:102BD0000020704770B584B03B4B98473B4B9847FB
:102BE0000B203B4CA0470C20A0470D20A0470E20F7
:102BF000A047384B9847384B9847384B9847384B45
:102C000098473520374DA84700F01F03012404FAE8
:102C100003F3400900F5001000F207704002036062
:102C20003420A84700F01F0304FA03F3400900F51D
:102C3000001000F20770400203601E20A84700F059
:102C40001F0304FA03F3400900F5001000F20770B7
:102C5000400203603520A847430903F5001303F23F
:102C600007735B0200F01F0004FA00F01861C3F85C
:102C7000A0003420A847430903F5001303F20773AB
:102C80005B0200F01F0084401C61C3F8A0400024D8
:102C90000394029401940226009623464FF4007296
:102CA00011491248124DA8470394029401940096CA
:102CB00023464FF400720F490F48A8470F4B98471F
:102CC000204604B070BD00BF65240800C924080078
:102CD0007D29080061220800411B0800451A0800F0
:102CE0006101080081200800286B0800E11E08002F
:102CF000ED0C0800346B080065200800F10E080098
:102D00002DE9F84FC24B21F000469E420D468A46FF
:102D1000044610DDBF4B9E4200F3B58000F0B0804A
:102D2000BD4BBE49BE4CBAF1000FD8BF0B46204682
:102D30001946BDE8F88FBB4B9E4200F3C180A3F15A
:102D4000DE739E4240F3AB804FF0FF3B22462B46A2
:102D50002046294600F04EFC02460B468046894636
:102D600000F048FC92A3D3E9002306460F4600F08A
:102D700041FC91A3D3E9002300F08AFA32463B4696
:102D800000F038FC8EA3D3E9002300F081FA32462C
:102D90003B4600F02FFC8CA3D3E9002300F078FA27
:102DA00032463B4600F026FC89A3D3E9002300F01D
:102DB0006FFA32463B4600F01DFC87A3D3E900239F
:102DC00000F066FA42464B4600F014FC84A3D3E9B7
:102DD0000023804689463046394600F00BFC82A32A
:102DE000D3E9002300F052FA32463B4600F002FCE1
:102DF0007FA3D3E9002300F049FA32463B4600F0B6
:102E0000F9FB7DA3D3E9002300F040FA32463B46AC
:102E100000F0F0FB7AA3D3E9002300F037FA324642
:102E20003B4600F0E7FBBBF1FF3F02460B466ED08E
:102E30004046494600F02CFA22462B4600F0DAFBC9
:102E4000794E7A4B4FEACB0B5E449B44DBE900237F
:102E500000F01CFA22462B4600F018FA0B460246F8
:102E6000D6E9000100F012FABAF1000F04460B4651
:102E7000BFF65DAF01F1004320461946BDE8F88F6B
:102E800000283FF44DAF22462B462046294600F04D
:102E9000FFF904460B4620461946BDE8F88F5AA3B1
:102EA000D3E9002300F0F4F90022614B00F032FE78
:102EB00000283FF449AF2B4620461946BDE8F88F5D
:102EC00000F0C0F85B4B04469E420D4630DCA3F593
:102ED00050239E4255DC02460B4600F0D9F90022F1
:102EE000534B00F0D3F9002206460F464FF08043C3
:102EF0002046294600F0CCF902460B4630463946BA
:102F000000F0A2FC4FF0000B04460D461EE74046C1
:102F1000494600F0BDF922462B4600F06BFB0B46FC
:102F200002462946204600F0B1F904460B46FEE66B
:102F3000414B9E421ADC0022404B00F0A7F90022D0
:102F400006460F463D4B2046294600F053FB002223
:102F5000374B00F09DF902460B463046394600F0EB
:102F600073FC4FF0020B04460D46EFE602460B469B
:102F70000020334900F068FC4FF0030B04460D4677
:102F8000E4E600222A4B00F081F9002206460F46B3
:102F9000274B2046294600F07BF902460B46304677
:102FA000394600F051FC4FF0010B04460D46CDE6CA
:102FB00011DA22E33AAD903FEB0D76244B7BA93F2B
:102FC000513DD0A0660DB13F6E204CC5CD45B73FF9
:102FD000FF8300922449C23F0D5555555555D53FA5
:102FE0002F6C6A2C44B4A2BF9AFDDE522DDEAD3F99
:102FF0006D9A74AFF2B0B33F711623FEC671BC3F39
:10300000C4EB98999999C93F9C7500883CE4377E38
:10301000FFFF0F440000F07FFB21F93FFB21F9BFC8
:10302000182D4454FFFFDB3F406B0800606B080025
:103030000000F03FFFFFF23FFF7F03400000F83F3A
:103040000000F0BF21F00041704700BF2DE9F04FB4
:103050008BB004460D4600F057F8294B064693F90D
:1030600000A00F46BAF1FF3F12D022462B46204661
:10307000294600F059FD834650B94FF000084FF043
:1030800000092046294642464B4600F025FD20B95E
:10309000304639460BB0BDE8F08F0122194BCDF810
:1030A00020B0CDE90445CDE902458DE80C00BAF128
:1030B000000F17D042464B464046494600F0C4FB3D
:1030C000BAF1020FCDE906010ED100F063FD212314
:1030D0000360089B73B9DDE90667304639460BB0DB
:1030E000BDE8F08FCDE90689684600F0C9F80028F0
:1030F000EFD1EAE700F04EFD089B0360EBE700BF6D
:1031000084010720806B08002DE9F8435B4F0546DA
:103110008F430C4600F0928000290B4602466FDD7B
:103120000F157BD0A7F2FF37C3F31303F80743F45F
:1031300080135CD400261620B6464FF4001103EB32
:10314000D2747F10234452000EEB01049C424FEADC
:10315000D2754FEA420203DC1B1B04EB010E0E4446
:10316000013805EB43034FEA5101EDD12024844699
:103170004FF0004109E020D003EBD275013C4FEA4B
:1031800051012B444FEA420220D0734501EB0C055C
:10319000F1DD002D05EB010C09DBF0469542A3EBB8
:1031A0000E0300D9013BC646521B0844E4E7BCF1BC
:1031B000000FF2DB0EF10108F0E79542DCD8002D9C
:1031C00005EB010C44DB98460023ECE7134313D1D5
:1031D0004008731003F17F5303F5001303EB075905
:1031E0004946F20748BF40F00040BDE8F8835B0065
:1031F00003EBD27352009DE7411C2DD00130E7E76D
:10320000064621F000473E43EFD069BB0F46D30A84
:10321000153F5205002BFAD0DE0220D4002400E036
:1032200004465B00DD0204F10100F9D5C0F1200184
:1032300022FA01F10B433F1B824073E702460B4623
:1032400000F0D8F92A46234600F022F8BDE8F883BA
:10325000BCF1000FAEDAB6E701362046B9E7002030
:1032600020214FF0FF34E3E702460B4600F00EF852
:1032700002460B4600F0E8FAB7E700BF0000F07F17
:103280000020704781F0004102E000BF83F000435E
:1032900030B54FEA41044FEA430594EA050F08BFF1
:1032A00090EA020F1FBF54EA000C55EA020C7FEAB5
:1032B000645C7FEA655C00F0E2804FEA5454D4EB32
:1032C0005555B8BF6D420CDD2C4480EA020281EAFC
:1032D000030382EA000083EA010180EA020281EA34
:1032E0000303362D88BF30BD11F0004F4FEA013186
:1032F0004FF4801C4CEA113102D0404261EB410195
:1033000013F0004F4FEA03334CEA133302D052421A
:1033100063EB430394EA050F00F0A780A4F10104D6
:10332000D5F1200E0DDB02FA0EFC22FA05F2801810
:1033300041F1000103FA0EF2801843FA05F35941F6
:103340000EE0A5F120050EF1200E012A03FA0EFC75
:1033500028BF4CF0020C43FA05F3C01851EBE3719F
:1033600001F0004507D54FF0000EDCF1000C7EEBBC
:1033700000006EEB0101B1F5801F1BD3B1F5001FFA
:103380000CD349085FEA30004FEA3C0C04F1010419
:103390004FEA445212F5800F80F09A80BCF1004F42
:1033A00008BF5FEA500C50F1000041EB045141EAC4
:1033B000050130BD5FEA4C0C404141EB010111F4C5
:1033C000801FA4F10104E9D191F0000F04BF014670
:1033D0000020B1FA81F308BF2033A3F10B03B3F14E
:1033E00020020CDA0C3208DD02F1140CC2F10C02DE
:1033F00001FA0CF021FA02F10CE002F11402D8BF3C
:10340000C2F1200C01FA02F120FA0CFCDCBF41EA07
:103410000C019040E41AA2BF01EB0451294330BDD6
:103420006FEA04041F3C1CDA0C340EDC04F11404B3
:10343000C4F1200220FA04F001FA02F340EA03008A
:1034400021FA04F345EA030130BDC4F10C04C4F1D0
:10345000200220FA02F001FA04F340EA03002946B0
:1034600030BD21FA04F0294630BD94F0000F83F4FA
:10347000801306BF81F480110134013D4EE77FEADD
:10348000645C18BF7FEA655C29D094EA050F08BF29
:1034900090EA020F05D054EA000C04BF194610460A
:1034A00030BD91EA030F1EBF0021002030BD5FEA4E
:1034B000545C05D14000494128BF41F0004130BD76
:1034C00014F580043CBF01F5801130BD01F00045CA
:1034D00045F0FE4141F470014FF0000030BD7FEA3D
:1034E000645C1ABF194610467FEA655C1CBF0B4638
:1034F000024650EA013406BF52EA033591EA030F4F
:1035000041F4002130BD00BF90F0000F04BF002146
:10351000704730B54FF4806404F132044FF0000579
:103520004FF0000150E700BF90F0000F04BF0021F2
:10353000704730B54FF4806404F1320410F0004558
:1035400048BF40424FF000013EE700BF42004FEA53
:10355000E2014FEA31014FEA02701FBF12F07F43D0
:1035600093F07F4F81F06051704792F0000F14BFCD
:1035700093F07F4F704730B54FF4607401F0004511
:1035800021F0004120E700BF50EA010208BF704768
:1035900030B54FF000050AE050EA010208BF70475D
:1035A00030B511F0004502D5404261EB41014FF4C6
:1035B000806404F132045FEA915C3FF4DCAE4FF0CA
:1035C00003025FEADC0C18BF03325FEADC0C18BFB1
:1035D000033202EBDC02C2F1200300FA03FC20FA02
:1035E00002F001FA03FE40EA0E0021FA02F114444F
:1035F000C1E600BF70B54FF0FF0C4CF4E06C1CEA64
:1036000011541DBF1CEA135594EA0C0F95EA0C0FD8
:1036100000F0DEF82C4481EA030621EA4C5123EA4B
:103620004C5350EA013518BF52EA033541F480117A
:1036300043F4801338D0A0FB02CE4FF00005E1FB2D
:1036400002E506F00042E0FB03E54FF00006E1FB77
:1036500003569CF0000F18BF4EF0010EA4F1FF04BA
:10366000B6F5007F64F5407404D25FEA4E0E6D41FA
:1036700046EB060642EAC62141EA55514FEAC5200B
:1036800040EA5E504FEACE2EB4F1FD0C88BFBCF587
:10369000E06F1ED8BEF1004F08BF5FEA500E50F138
:1036A000000041EB045170BD06F0004646EA0101FE
:1036B00040EA020081EA0301B4EB5C04C2BFD4EB30
:1036C0000C0541EA045170BD41F480114FF0000E29
:1036D000013C00F3AB8014F1360FDEBF002001F097
:1036E000004170BDC4F10004203C35DA0C341BDC11
:1036F00004F11404C4F1200500FA05F320FA04F0E3
:1037000001FA05F240EA020001F0004221F0004116
:1037100010EBD37021FA04F642EB06015EEA430E89
:1037200008BF20EAD37070BDC4F10C04C4F12005B9
:1037300000FA04F320FA05F001FA04F240EA02006C
:1037400001F0004110EBD37041F100015EEA430E3D
:1037500008BF20EAD37070BDC4F1200500FA05F25D
:103760004EEA020E20FA04F301FA05F243EA0203DC
:1037700021FA04F001F0004121FA04F220EA0200EB
:1037800000EBD3705EEA430E08BF20EAD37070BD31
:1037900094F0000F0FD101F00046400041EB010111
:1037A00011F4801F08BF013CF7D041EA060195F0F3
:1037B000000F18BF704703F00046520043EB0303AD
:1037C00013F4801F08BF013DF7D043EA060370479A
:1037D00094EA0C0F0CEA135518BF95EA0C0F0CD0A5
:1037E00050EA410618BF52EA4306D1D181EA0301EB
:1037F00001F000414FF0000070BD50EA410606BFE5
:103800001046194652EA430619D094EA0C0F02D129
:1038100050EA013613D195EA0C0F05D152EA03366E
:103820001CBF104619460AD181EA030101F000418C
:1038300041F0FE4141F470014FF0000070BD41F0D5
:10384000FE4141F4780170BD70B54FF0FF0C4CF4AF
:10385000E06C1CEA11541DBF1CEA135594EA0C0FCE
:1038600095EA0C0F00F0A7F8A4EB050481EA030E1B
:1038700052EA03354FEA013100F088804FEA033302
:103880004FF0805545EA131343EA12634FEA0222D0
:1038900045EA111545EA10654FEA00260EF0004191
:1038A0009D4208BF964244F1FD0404F5407402D2E3
:1038B0005B084FEA3202B61A65EB03055B084FEA74
:1038C00032024FF480104FF4002CB6EB020E75EB71
:1038D000030E22BFB61A754640EA0C005B084FEA99
:1038E0003202B6EB020E75EB030E22BFB61A754616
:1038F00040EA5C005B084FEA3202B6EB020E75EB61
:10390000030E22BFB61A754640EA9C005B084FEAD8
:103910003202B6EB020E75EB030E22BFB61A7546E5
:1039200040EADC0055EA060E18D04FEA051545EAD4
:1039300016754FEA06164FEAC30343EA52734FEA7D
:10394000C2025FEA1C1CC0D111F4801F0BD141EAF6
:1039500000014FF000004FF0004CB6E711F4801F5B
:1039600004BF01430020B4F1FD0C88BFBCF5E06F3B
:103970003FF6AFAEB5EB030C04BFB6EB020C5FEA4B
:10398000500C50F1000041EB045170BD0EF0004EA0
:103990004EEA113114EB5C04C2BFD4EB0C0541EAD2
:1039A000045170BD41F480114FF0000E013C90E6CF
:1039B00045EA060E8DE60CEA135594EA0C0F08BF93
:1039C00095EA0C0F3FF43BAF94EA0C0F0AD150EA92
:1039D00001347FF434AF95EA0C0F7FF425AF104625
:1039E00019462CE795EA0C0F06D152EA03353FF44D
:1039F000FDAE1046194622E750EA410618BF52EACA
:103A000043067FF4C5AE50EA41047FF40DAF52EA9D
:103A100043057FF4EBAE12E74FF0FF3C06E000BF3A
:103A20004FF0010C02E000BF4FF0010C4DF804CD47
:103A30004FEA410C7FEA6C5C4FEA430C18BF7FEA07
:103A40006C5C1BD001B050EA410C0CBF52EA430C35
:103A500091EA030F02BF90EA020F0020704710F1B5
:103A6000000F91EA030F58BF994208BF90422CBF44
:103A7000D8176FEAE37040F0010070474FEA410C3D
:103A80007FEA6C5C02D150EA013C07D14FEA430C5B
:103A90007FEA6C5CD6D152EA033CD3D05DF8040BCC
:103AA000704700BF8446104662468C4619466346FE
:103AB00000E000BF01B5FFF7B7FF002848BF10F1D5
:103AC000000F01BD4DF808EDFFF7F4FF0CBF01201A
:103AD00000205DF808FB00BF4DF808EDFFF7EAFF96
:103AE00034BF012000205DF808FB00BF4DF808ED51
:103AF000FFF7E0FF94BF012000205DF808FB00BF46
:103B00004DF808EDFFF7CEFF94BF012000205DF8CF
:103B100008FB00BF4DF808EDFFF7C4FF34BF0120DC
:103B200000205DF808FB00BF4FEA410C7FEA6C5CA7
:103B300002D150EA013C0AD14FEA430C7FEA6C5CA7
:103B400002D152EA033C02D14FF0000070474FF01F
:103B5000010070474A0011D212F5001211D20DD5A2
:103B60006FF47873B3EB62520ED44FEAC12343F083
:103B7000004343EA505323FA02F070474FF000002D
:103B8000704750EA013002D14FF0FF3070474FF0DC
:103B900000007047014B1868704700BF880107207C
:103BA00070B50F4E0F4D761BB61018BF002405D010
:103BB000013455F8043B9847A642F9D10A4E0B4D03
:103BC00003F096F8761BB61018BF002406D0013417
:103BD00055F8043B9847A642F9D170BD70BD00BFAF
:103BE000FC6C0800FC6C0800046D0800FC6C08000C
:103BF0000FB410B5074B82B004AC54F8042B18680E
:103C000023468168019400F03BFA02B0BDE8104001
:103C100004B0704788010720844641EA000313F08E
:103C2000030349D1403A23D30B6803604B684360D8
:103C30008B688360CB68C3600B6903614B69436128
:103C40008B698361CB69C3610B6A03624B6A436210
:103C50008B6A8362CB6AC3620B6B03634B6B4363F8
:103C60008B6B8363CB6BC36340304031403ADBD214
:103C700030320BD30B6803604B6843608B68836002
:103C8000CB68C36010301031103AF3D20C3205D338
:103C900051F8043B40F8043B043AF9D2043208D00E
:103CA000D2071CBF11F8013B00F8013B01D30B8880
:103CB00003806046704700BF082A13D38B07B1D03A
:103CC00010F00303AED0C3F10403D21ADB071CBF0C
:103CD00011F8013B00F8013BA4D331F8023B20F876
:103CE000023B9FE7043AD9D3013A11F8013B00F8AF
:103CF000013BF9D20B7803704B7843708B7883705B
:103D00006046704770B4860746D0541E002A41D0E2
:103D1000CAB2034602E014F1FF343BD303F8012B8F
:103D20009D07F8D1032C2ED9CDB245EA05250F2CDD
:103D300045EA054519D9264603F11002103E0F2E1B
:103D400042F8105C42F80C5C42F8085C42F8045CF3
:103D500002F11002F2D8A4F1100222F00F0204F0D6
:103D60000F041032032C13440DD91E462246043A88
:103D7000032A46F8045BFAD8221F22F00302043219
:103D8000134404F003042CB1C9B21C4403F8011B12
:103D90009C42FBD170BC704714460346C2E700BF8B
:103DA00000290CBF022200224FF4806300F000B80B
:103DB0002DE9F043614D83B02D6804460F469046CF
:103DC0001E4615B1AB6B002B64D0B8F1020F06D0C4
:103DD000B8F1010F00F29F80002EC0F29C80636E4C
:103DE000D80734D52146284601F0E2F8216B41B1CD
:103DF00004F14003994202D0284601F057FA00230B
:103E000023630022B4F90C30A26162601A063AD42E
:103E100023F44A6323F00303B8F1020FA3811DD0FA
:103E200001AB6A462146284601F0DEFCA38918430F
:103E3000A081002E32D1009E304601F04DFD074694
:103E400000286BD0A38943F08003A38128E0A389D5
:103E50009905C7D4A06D01F0C3FCC3E70025002677
:103E60000120616E04F1430243F00203A660CE0715
:103E7000A38160612260226101D498053ED5284665
:103E800003B0BDE8F0832169284601F00FFAB4F9C8
:103E90000C30BDE7284601F0E3F896E7002FCBD0C1
:103EA000AB6B002B33D0009BB4F90C209E421CBF9F
:103EB00042F40062A281B8F1010F04BF42F0010296
:103EC000A28192B212F008032760276166610ED0CA
:103ED000D1071AD50023656E764215F00105A6615B
:103EE000A36009D00025284603B0BDE8F083A36095
:103EF000656E15F00105F5D19305C0D4A06D01F0F4
:103F000071FC284603B0BDE8F083A660F0E72846C0
:103F100001F0A6F8C7E74FF0FF35B0E7DDF80090F5
:103F2000B14504D0484601F0D7FC074620B9B4F9A2
:103F30000C304FF0FF3592E74E4683E788010720AB
:103F400020F0030110F00300C0F1000051F8043B21
:103F500000F1040C4FEACC0C6FF000021CBF22FAF7
:103F60000CF213434FF0010C4CEA0C2C4CEA0C4CB5
:103F7000A3EB0C0222EA030212EACC1204BF51F8AE
:103F8000043B0430F4D0C2F1000102EA0102B2FAAB
:103F900082F2C2F11F0200EBD200704740EA010337
:103FA00013F0030F70B4034624D0A2B10C78013A89
:103FB0001C70013101333CB16AB111F8014B013A77
:103FC00003F8014B002CF7D12AB100211A4403F861
:103FD000011B9A42FBD170BC70470E4651F8045B3E
:103FE000A5F1013424EA050414F0803F05D1043A18
:103FF00043F8045B032AF0D8D7E73146D6E700BF81
:104000002DE9F84F4B6E93469C042FD593681268A8
:1040100053B30E46074602F1080919E920045FEA86
:104020009A0817D00024043D01E0A04510D0324684
:1040300055F8041F384601F0B5F8431C04F101049B
:10404000F3D10023CBF80830CBF80430BDE8F88F6B
:10405000DBF808302AF0030AA3EB0A03CBF8083098
:1040600009F10809002BD8D10020EAE701F004FA91
:104070000023CBF80830CBF80430BDE8F88F00BF40
:104080002DE9F04FADB01D468B4690460793069044
:1040900018B1836B002B00F0F380DBF86430BBF9C0
:1040A0000C00DF0781B202D48E0540F1FC808C0445
:1040B0000AD4DBF8643040F4005123F40053ABF829
:1040C0000C10CBF8643089B2080740F1B380DBF8FC
:1040D0001030002B00F0AE8001F01A030A2B00F024
:1040E000B58000230DF1700AD1460B930393119311
:1040F0001093CDF83CA0CDF810B098F800304446AD
:10410000FBB1252B02D11CE0252B03D014F8013F75
:10411000002BF9D1A4EB08059DB1109B119A013336
:104120002A44072BC9F80080C9F804501192109353
:104130007ADD002A40F0B584D146039B10922B44CF
:1041400003932378002B00F0E58300204FF0000359
:1041500004F101088DF837306278064605460346BB
:104160004FF0FF3408F10108A2F12001582900F2B4
:10417000D982DFE811F02802D702D7023002D70235
:10418000D702D702D702D702D702A0008802D702EF
:10419000A800B802D702A601AB01AB01AB01AB018D
:1041A000AB01AB01AB01AB01AB01D702D702D70228
:1041B000D702D702D702D702D702D702D702B90156
:1041C000D702D702D702D702D702D702D702D70227
:1041D000D702D7029E01D702D702D702D702D70251
:1041E000A201D702D7025A02D702D702D702D702BA
:1041F000D702D702D702D702D702D7026102220222
:10420000D702D702D70276022202D702D7027B0258
:10421000D702FC0189011002D202D7029502D7020F
:10422000AD00D702D702350209F10809039B2B44E0
:10423000039386E75946069800F0AAFD18BBBBF821
:104240000C1001F01A030A2B7FF44BAFBBF90E30B0
:10425000002BFFF646AFDBF86430DB0705D48F0593
:1042600003D4DBF8580001F0BDFA2B46424659460C
:10427000069800F049FD039003982DB0BDE8F08F3B
:1042800000F0EEFE09E7DBF86430D90704D4BBF890
:104290000C309A0540F1AE844FF0FF33039303983E
:1042A0002DB0BDE8F08FDBF8580001F099FABBF9AA
:1042B0000C0081B2FBE607990A460D680432002D16
:1042C000079202DA6D4243F0040398F8002049E7B0
:1042D00008959E0600F15A840799DD060A4600F10A
:1042E000EF83580640F1EC83002701220E88043149
:1042F00007914FF0000100258DF83710611C00F088
:10430000178123F08001029156EA070140F01581E0
:10431000002C40F05B83002A40F0B68313F00103C9
:10432000059300F0558430230DF1B00B0BF8413D9F
:10433000059BA342B8BF234601930DB101330193FE
:10434000029B13F00203099302D0019B02330193F5
:10435000029B13F084030A9340F01582089B019A94
:104360009D1A002D40F30F82102D40F38484109B82
:10437000CE461027A146119AC54E1946069C07E065
:1043800001F1020C01460EF1080E103D102D11DD59
:10439000481C1032072811928EE8C0001090EFDD03
:1043A000002A40F0D981103D102D11464FF0010C2C
:1043B000D646EDDC4C466146F1462A440729119267
:1043C000C9F80060C9F80450109100F3EB829DF821
:1043D000375009F10809481C002D40F0DC81099B89
:1043E000002B00F0F68102210EAB0A44072811923F
:1043F0001090C9F80410C9F8003040F3E681002A93
:1044000040F095830A9B0120802B1146D14640F055
:10441000E481089B019D5E1B002E40F3DE81102E7F
:1044200040F33C84CC461027A1469A4D069C07E0F9
:1044300001F1020E01460CF1080C103E102E11DDA8
:10444000481C1032072811928CE8A0001090EFDD74
:10445000002A40F09B82103E102E4FF0010E1146B4
:10446000D446EDDC4C46E1463244BEF1070F1192D2
:1044700089E86000CDF840E000F3668309F108099F
:104480000EF101007146A8E1089513F0200240F0FA
:10449000898313F0100140F0198313F0400200F0FB
:1044A000158307980A4601460431068800270791BC
:1044B0001FE7089543F01003E7E7089543F0100362
:1044C00007E743F0800398F800204BE60025A2F1AF
:1044D000300118F8012B05EB850501EB4505A2F12C
:1044E00030010929F5D93FE60895002840F00284FB
:1044F00043F010039E0600F13D830799DD060A464E
:1045000000F1F082580640F1ED82B1F9006004320A
:10451000F717304639460792002871F10002C0F2C1
:104520005A83611C9DF837504FF001027FF4E9AEC9
:1045300056EA070100F04B820293012A00F08A82BA
:10454000022A40F05A82D3460B98330943EA077394
:10455000390906F00F020F461E46835C0BF8013D39
:1045600056EA0703F1D1AAEB0B030593E0E6002816
:1045700040F0BD83990600F15983DA0600F1E58029
:104580005B0640F1E280079A136804320792BDF897
:104590000C201A80B1E5782230210895079D8DF80E
:1045A00039202A1D07923C4A2E680B9243F00203E1
:1045B0008DF83810002702229BE60895002899D034
:1045C0008DF8376096E798F80020002E7FF4CAAD8A
:1045D00001202026C6E543F0010398F80020C1E53C
:1045E0000895002840F080832B490B919F0600F12D
:1045F000E5820798DE06014600F16F825D0640F114
:104600006C820027043106880791D80740F1208288
:1046100056EA070100F01C8230218DF8392043F062
:1046200002038DF83810022263E60895002840F056
:1046300055831A490B91D9E7012207981146019237
:1046400002684FF000048DF84820024604320895B5
:104650008DF83740059107920DF1480B0293002425
:104660006EE643F0400398F800207BE598F80020C0
:104670006C2A03BF98F8012043F0200308F10108D9
:1046800043F010036EE598F8002001202B2669E521
:10469000BC6B0800CC6B0800A06B08008C6B08009A
:1046A0004FF0000207990895D1F800B08DF8372037
:1046B0000D1DBBF1000F00F0E482671C00F0C38207
:1046C000224600215846019301F0C6FB019B0028B9
:1046D00000F0E882A0EB0B020795059202939DF88B
:1046E0003750002424E698F8002008F101072A2A10
:1046F00000F0E982A2F130010929B8464FF0000428
:104700003FF632AD18F8012B04EB840401EB4404AE
:10471000A2F130010929F5D926E543F0200398F8E4
:1047200000201FE50895002840F0DB82002A00F0F9
:10473000F18001218DF848204FF0000201918DF8A1
:10474000372005910DF1480B88E7079A136804326A
:104750000792039A1A60D0E40FAA04992046FFF743
:104760004FFC002840F043811099D646119A01F180
:10477000010C0AE60FAA04990698FFF741FC0028ED
:1047800040F03581D14610999DF83750119A481C58
:10479000002D3FF424AE01210DF137050A4407280E
:1047A00011921090C9F80410C9F8005040F3098123
:1047B000002A40F0AF81099B002B3FF423AE022278
:1047C0000846D1460EAB1D921C93014609F108091B
:1047D00001300A9B802B3FF41CAE059BE41A002C91
:1047E0002FDD102C40F32082CE461026B24D069FBE
:1047F000DDF8109006E0881C19460EF1080E103CFA
:10480000102C10DD4B1C1032072B11928EE860002B
:104810001093F0DD002A65D1103C102C4FF0010000
:104820001146D646EEDCF146224407281192C9F81B
:104830000050C9F80440109000F3858009F1080980
:104840000130059907280A441192C9F800B0C9F847
:104850000410109040F38280002A40F01881029BDF
:104860001092580735D5089B01995C1A002C40F32B
:10487000E780D146102C40F30D82102510998F4E01
:10488000069FDDF810B006E0881C194609F10809FA
:10489000103C102C11DD4B1C1032072B1192C9F863
:1048A0000060C9F804501093EEDD42BB103C102CA0
:1048B0004FF001001146D146EDDC22440728119249
:1048C000C9F80060C9F80440109051DD002A40F09A
:1048D0009A81039B089A01998A42ACBF9B185B1886
:1048E00003934EE00FAA49463846FFF789FB00289C
:1048F00040F03E811099D646119A481C7FE70FAAD6
:1049000059463846FFF77CFB60B91099D146119A99
:10491000481CBDE7119BDDF810B0002B40F0CA81A8
:1049200000231093DBF8643013F0010FBBF80C3058
:1049300002D19A0540F1DD805B063FF5ADAC0398EE
:104940002DB0BDE8F08F002A40F005810123D1464B
:10495000059ACDF870B01D921192109309F10809D3
:10496000029B590704D5089B01995C1A002C81DC35
:10497000039B089901988142ACBF5B181B180393F5
:1049800072BB0023D1461093FFF7B7BB0FAA04995F
:104990002046FFF735FB50BB1099D446119A01F120
:1049A000010E4AE5002A7FF4E5AE9DF83710002994
:1049B00000F01A810122D14610460DF137011D92F7
:1049C0001C91014609F10809013008E5029B012A02
:1049D00000F09780022A0DD1029300260027B2E54D
:1049E0000FAA04990698FFF70BFB0028C9D0DDF841
:1049F00010B097E7002600270293514600E0594681
:104A0000F20842EA4772F80806F00703074616461E
:104A1000303356EA070201F8013C01F1FF3BEED1C9
:104A2000029AD6077FF59FAD302B3FF49CAD302323
:104A300002390BF8013CAAEB010305938B4677E49E
:104A4000039B089A8A42ACBF9B185B18039398E7B4
:104A500002224EE4002F08BF0A2E51D3D34630461F
:104A600039460A22002301F085FE30320BF8012D71
:104A70003046394600230A2201F07CFE06460F46E6
:104A800056EA0703EBD16EE50594D34650E40FAA2E
:104A900004990698FFF7B4FA0028A8D1D146119AD4
:104AA0005EE70FAA04990698FFF7AAFA00289ED19C
:104AB000D146FFF7BBBB00BFCC6B0800BC6B080046
:104AC0000431166800270122079112E40798002795
:104AD00001460431066807910BE40E680431079122
:104AE000002792E516680432F717079230463946D8
:104AF00012E5DBF8580000F075FEBBF80C301BE740
:104B0000029B029301230DF1B00B30360BF8416D7F
:104B100005930DE40FAA04990698FFF771FA00288F
:104B20007FF465AF1099D146119A481C57E40FAA3B
:104B300004990698FFF764FA00287FF458AF10999B
:104B4000D146119A481C44E6002A40F08780012093
:104B50001146D14641E60FAA04990698FFF750FA8C
:104B600000287FF444AF1098D146119A013068E6CE
:104B7000CB46D7E6079D073525F0070505F1080266
:104B8000D5E90001079206460F46C5E4079D0735A3
:104B900025F0070202F10801D2E90067079101221E
:104BA000FFF7A7BB079D073525F0070202F10801B3
:104BB000D2E9006707910022FFF79BBB079D0735ED
:104BC00025F0070101F108000790D1E900671CE515
:104BD000D346FFF7ADBB2D25764267EB47078DF82F
:104BE00037500122FFF78ABB099BB3B91146012058
:104BF000D146F2E5DBF8580000F0F4FD4FF0FF334A
:104C00000393FFF74CBB0FAA04990698FFF7F8F936
:104C100000287FF4ECAE119AAAE602220EAB1D9298
:104C20001C930120D146D0E5344DFDE5079A13468B
:104C300004330793039B1168DD171A462B46C1E91D
:104C40000023FFF75ABA584607950293FFF778F901
:104C5000002405909DF83750FFF76ABB0FAA04990E
:104C60000698FFF7CDF900287FF4C1AE1099D14620
:104C7000119A481CB1E51099119A0131204EFFF7A5
:104C80009CBB062C28BF0624079505940194DFF8E9
:104C900074B0E3E410981A4E01300EE68646174DC4
:104CA000FFF7E2BB05940795029304469DF8375041
:104CB000FFF73EBB06980FAA5946FFF7A1F9002857
:104CC0003FF42EAE2EE6079998F801200C680431C7
:104CD00044EAE474B8460791FFF744BA8DF83760A8
:104CE000A7E48DF8376021E58DF837607CE48DF816
:104CF00037603FE48DF83760FFF7FABBCC6B0800F4
:104D0000BC6B0800B46B08002DE9F0410C464FF075
:104D1000000E4FF48065064617469846626EE3899A
:104D20008989ADF58D6D21F002011992ADF80E3033
:104D3000E269636AADF80C1016A81AA9CDF818E05C
:104D400007920993009104910295059500F044FDA6
:104D500043463A4669463046FFF792F9051E07DB9F
:104D60003046694600F024F9002818BF4FF0FF359F
:104D7000BDF80C305B0603D5A38943F04003A38143
:104D8000169800F02BFD28460DF58D6DBDE8F081DD
:104D900038B5304B054618680C4610B1836B002BB4
:104DA00038D0B4F90C2093B218070CD52069A8B1FB
:104DB00013F001021ED000226369A2605B42A3616E
:104DC000F0B1002038BDD9063BD5580725D420695D
:104DD00042F00803A3819BB20028E9D103F42072BA
:104DE000B2F5007FE4D02846214600F02BFDA389D0
:104DF0002069DDE7990758BF6269A2600028E0D109
:104E0000B4F90C301A06DDD543F04003A3814FF00E
:104E1000FF3038BD00F024F9C3E7216B51B104F134
:104E20004003994204D0284600F040FAB4F90C201F
:104E3000002323630023206922F0240284E8090070
:104E4000C6E7092342F040022B604FF0FF30A281F9
:104E500038BD00BF88010720024B13B1024800F0A3
:104E600005B8704700000000D95008000023014633
:104E70001A46184601F056BBB1F90C302DE9F04145
:104E80009AB20D46110780463AD46A6843F400632B
:104E9000002AAB8170DDAC6A002C4AD000229BB2A4
:104EA000D8F80060C8F8002013F4805268D02A6D4A
:104EB0005F0705D569682B6B521A0BB1EB6BD21AE1
:104EC0000023E9694046A047441C3DD00021B5F9C4
:104ED0000C302A6923F40063AB81DB0469602A602B
:104EE00048D4296BC8F8006019B305F14003994212
:104EF00002D0404600F0DAF900202863BDE8F081D6
:104F00002E69B6B1910718BF00232C6808BF6B69E2
:104F10002E60A41BAB600AE0234632466F6AE96943
:104F20004046B8470028A4EB0004064404DD002CEA
:104F3000F2DC0020BDE8F081AB894FF0FF3043F098
:104F40004003AB81BDE8F081D8F800401D2CF3D8B8
:104F5000164BE340DB4313F00103EDD1B5F90C2010
:104F6000296922F40062AA81D2046B602960B8D555
:104F7000002CB6D12865B4E7EA6B002A8BDCD8E7B1
:104F80000123E9694046A047431C024602D0AB8991
:104F9000AC6A8DE7D8F80030002BF8D01D2B01D07B
:104FA000162BC9D1C8F80060C3E700BF010040203C
:104FB00038B50D46044608B1836BBBB1B5F90C009A
:104FC00088B16B6EDB0701D4810517D520462946D1
:104FD000FFF752FF6B6E0446DA0702D4AB899B05DC
:104FE00007D5204638BD0446204638BD00F038F8C5
:104FF000E4E7A86D00F0F6FB204638BDA86D00F090
:10500000EFFBE3E7014900F0B1BB00BF0D6608000C
:10501000002310B504468181C28103604360836030
:105020004366036143618361194608225C30FEF7E1
:1050300069FE07480749084A084B2062E46161623B
:10504000A262E36204F15800BDE8104000F0C4BB66
:105050005563080079630800B5630800D56308004C
:1050600010B50446144800F0BBFBA26BFAB903204C
:10507000124904F53B73C4F8E832C4F8E022C4F8DE
:10508000E402E16360680421FFF7C2FFA068012227
:105090000921FFF7BDFFE06802221221FFF7B8FFE8
:1050A00001230548A363BDE8104000F09BBB024804
:1050B000BDE8104000F096BB6CAE0720055008001C
:1050C000014800F08DBB00BF80AE0720014800F012
:1050D00089BB00BF80AE072038B50A4C0A4D641B5F
:1050E000A4100AD004F18043013B05EB8305013C89
:1050F00055F804399847002CF9D1BDE8384001F043
:1051000001BE00BF146D0800106D08002DE9F043CA
:1051100083B007468846144600F050FB012833D080
:10512000424604F15C0301A9384601F0AFF9421C84
:10513000064622D090B39DF8041000250DF1040915
:1051400008E023685A1C226019700135B54225D247
:1051500015F80910A368013B002BA360F1DAA269DE
:10516000934201DB0A29ECD12246384601F036F998
:10517000431CEAD103B0BDE8F083A38943F04003A8
:10518000A38103B0BDE8F08308F1FF33FE2BC7D83D
:105190005FFA88F106468DF80410CEE7404603B06A
:1051A000BDE8F08330B5536E144613F0010FB2F929
:1051B0000C3083B005469AB201D190051CD59004FD
:1051C00006D4626E43F4005342F40052A381626637
:1051D00028462246FFF79AFF636E0546DA0702D497
:1051E000A3899B0502D5284603B030BDA06D00F011
:1051F000F9FA284603B030BDA06D019100F0F0FA35
:10520000B4F90C3001999AB2D9E700BFF8B50C4651
:10521000234F064600F0CAFEBB68C4F57E615D6898
:105220000F3125F00305294421F47F6121F00F019E
:10523000A1F58054B4F5805F07DB0021304601F012
:1052400077F8BB682B44984204D0304600F0B4FE97
:105250000020F8BD6142304601F06AF801300DD0FF
:10526000104BBA6819682D1B45F001053046091B23
:105270005560196000F0A0FE0120F8BD0021304605
:1052800001F056F8BA68831A0F2BDEDD064C05498B
:10529000246843F00103001B53600860D5E700BF9A
:1052A00028070720D0AD0720300B0720002944D065
:1052B0002DE9F0410D46804600F078FE55F8047C5B
:1052C0006949A5F1080427F00103E2188E685068C7
:1052D000B24220F003005ED0FE0750600BD455F8B8
:1052E000087C01F1080EE41BA5683B4475456DD0B0
:1052F000E768EF60BD6015186D68ED073ED543F0B7
:1053000001026260E350B3F5007F17D20122DB088F
:1053100098104D68134451F83370824001EBC3007C
:105320002A430838E060A7604A6041F83340FC60D7
:105330004046BDE8F04100F03FBE70475A0A042ADB
:1053400052D89A0902F13907FF0002F13805C8194D
:10535000CA59083890424FD0516821F003018B425E
:1053600032D292689042F7D1C368A060E3609C603B
:10537000C4604046BDE8F04100F01EBE95683B4F5A
:105380000344BD4240D0D06843F00102E86085602C
:105390006260E350B7E7FF07034407D455F8085CA1
:1053A000641BE268A0682B44C2609060304A43F0FE
:1053B00001001268606093428C60B9D32D4B404667
:1053C0001968FFF723FFB3E71046CDE711184968C6
:1053D000C90744D491680344D26843F00100CA600D
:1053E00091606060E350A3E7142A16D802F15C07CD
:1053F000FF0002F15B05AAE70123AA104D68934064
:105400002B434B600346B0E743F001024C610C6153
:10541000E560A5606260E3508AE7542A06D81A0B5B
:1054200002F16F07FF0002F16E0590E7B2F5AA7F67
:1054300006D8DA0B02F17807FF0002F1770586E75C
:1054400040F25450824206D89A0C02F17D07FF00C8
:1054500002F17C057BE74FF47E777E2577E743F00A
:1054600001016160136063E7280707203007072008
:10547000340B072000AE07209368002B71D02DE974
:10548000F04F8B8983B00C4619070090164625D53E
:1054900022691AB313F0020035682BD04FF00009CF
:1054A000B0464F46DFF8C0A2002F55D057453B46C7
:1054B0004A4628BF5346E1690098666AB04700280B
:1054C00056DDD8F8083081441B1A3F1AC8F8083056
:1054D000002BE9D1002003B0BDE8F08F21460098F1
:1054E000FFF756FC002840F03581A389356813F09A
:1054F0000200D3D113F0010944D14F46019637B3CE
:105500009A05D4F8088040F185804745C346C0F02D
:10551000AD8013F4906F40F0AE80BA4620685A46D2
:10552000494600F0DFFCA2682368A2EB08025B4456
:10553000A2602360019AD1449368A7EB0A07A3EB0A
:105540000A039360002BC5D0A389002FD8D1D5F8CA
:1055500000906F680835D2E7D5F800906F6808357D
:10556000A2E70020704721460098FFF721FD78B39D
:10557000B4F90C304FF0FF3043F04003A38103B087
:10558000BDE8F08F814633464E46A8469A464D46C2
:1055900056B3002832D0B145CB4628BFB346206869
:1055A00023695F469842626904D9A36813449B4506
:1055B00000F3A88093454DDB1346676A2A46E169EC
:1055C0000098B847071ED3DDB9EB0709CBD00120FF
:1055D000DAF808303D44DB1BF61BCAF80830002B14
:1055E0003FF478AF002ED4D108F1080353F8046CCF
:1055F000984653F8085C0833002EF7D032460A214B
:10560000284600F029FC002800F0A1800130A0EB22
:105610000509C0E720682369984202D863699F4260
:105620005DD2B84528BFB8464946424600F05AFC0C
:10563000A3682268A3EB08034244A36022600BB175
:10564000C24677E721460098FFF7B2FC00288FD1C9
:10565000C2466FE75A46294600F044FCA268236818
:10566000A2EB0B025B44A2602360ADE7B846BA46EA
:10567000BB46206853E762692068216902EB420853
:10568000A0EB010A08EBD8780AF101004FEA68089C
:1056900038444045424684BF804642465B0544D577
:1056A0001146009800F020F98346002855D0524654
:1056B0002169FEF7B1FAA38923F4906343F08003D4
:1056C000A3810BEB0A00A8EB0A03C4F810B0C4F8DE
:1056D00014802060A360B846BA46BB461FE76FF04F
:1056E0000042BA4228BF3A4692FBF3F2E16903FB5B
:1056F00002F300984A46666AB047B0F1000A3FF7E5
:1057000019AF35E71A462946019300F0EBFB2268F2
:10571000019B21461A4422600098FFF749FC019B37
:1057200000287FF425AF1F464EE7009800F04AFCA2
:1057300083460028C5D1009D21692846FFF7B6FDA4
:105740000C22B4F90C302A6023F0800312E706F132
:10575000010920E74FF0FF30BDE60C220099B4F9B3
:105760000C300A6006E700BF00FCFF7F2DE9F8431C
:1057700010F538761ED0884607464FF00009756848
:10578000B468013D10D4A389013D012B08D9B4F9B7
:105790000E30013304D021463846C04749EA00099B
:1057A0006B1C04F16804EED13668002EE7D1484640
:1057B000BDE8F883B1464846BDE8F883044B054A86
:1057C0001B685B6B002B08BF134693F828017047DA
:1057D00088010720BC050720704700BF704700BF45
:1057E000704700BF704700BF70B50C46B1F90E108E
:1057F00090B0002915461E4614DB01AA00F068FF90
:1058000000280FDB029A4FF4806302F47042A2F585
:105810000052B2FA82F24FF40060520932602B60FB
:1058200010B070BD0023A289336012F0800004D054
:10583000402218462A6010B070BD4FF480632B6080
:1058400010B070BD8A890B46920706D5012103F17D
:10585000430259611A601A617047F0B583B001AB19
:105860006A460C460646FFF7BFFF009905463046DC
:1058700000F03AF8B4F90C30D8B19DE80600154FA5
:1058800043F08003F763A3812060206161611AB94E
:105890002B43A38103B0F0BD3046B4F90E1000F0E5
:1058A0002BFFA0B1A38923F0030343F001031BB234
:1058B000EEE79A05EED4012123F0030304F143023D
:1058C00043F00203A381616122602261E2E7B4F93F
:1058D0000C30DDE705500800024B0146186800F067
:1058E00003B800BF880107202DE9F04F01F10B0636
:1058F000162E83B0054640F29E8036F0070600F172
:10590000BD80B14200F2BA8000F050FBB6F5FC7FDA
:10591000C0F08582730A00F0B880042B00F26C811D
:10592000B30903F1390003F1380EC100B84F39440F
:105930004C680839A14206D10CE0002A80F2AB8005
:10594000E468A14206D0636823F003039A1B0F2A80
:10595000F3DD70463C69DFF8CCE2744500F09E81CF
:10596000636823F003039A1B0F2A00F38381002A44
:10597000C7F814E0C7F810E080F29180B3F5007F1B
:1059800080F054810122DB0879684FEAA30C1344AC
:1059900057F8338002FA0CF207EBC30C0A43ACF160
:1059A0000801E160C4F808807A6047F83340C8F81D
:1059B0000C40012483109C4094427DD8144206D1AF
:1059C00020F003006400144200F10400FAD007EB59
:1059D000C009CC468046DCF80C309C4507D15FE11D
:1059E000002A80F26D81DB689C4500F0598159687E
:1059F00021F003018A1B0F2AF2DDDC68D3F808C00E
:105A000046F0010828461E4442F00105C3F8048010
:105A1000CCF80C40C4F808C07E613E61C6F80CE0CA
:105A2000C6F808E075605A50009300F0C5FA009B74
:105A300003F108041EE0102920D800F0B7FA102660
:105A400018230220724F3B445C68A3F10802944281
:105A500000F02F816368E16823F0030323445A6850
:105A6000A66842F00102F16028468E605A6000F09C
:105A7000A3FA0834204603B0BDE8F08F00240C23BD
:105A800020462B6003B0BDE8F08F40204FF400713A
:105A90004FF03F0E4AE723445A68E168E0E72344A9
:105AA0005A68284642F001025A60083400F084FA2D
:105AB000204603B0BDE8F08FBC68636823F003089C
:105AC000B04504D3A8EB06030F2B00F38580DFF865
:105AD0005891504BD9F800201B680132334404EB35
