S00F00006A6F686E736F6E2E7372656316
S214080000202D0720BD0D0800B90D0800B90D080001
S214080010B90D0800B90D0800B90D08000000000069
S21408002000000000000000000000000015020800A4
S214080030B90D0800000000004D02080089020800FB
S214080040B90D0800B90D0800B90D0800B90D08006B
S214080050B90D0800B90D0800B90D0800B90D08005B
S214080060B90D0800B90D0800000000002D0C0800A6
S214080070410C0800550C0800690C08000000000038
S21408008000000000B5040800B90D0800B90D080006
S214080090B90D0800B90D0800B90D0800B90D08001B
S2140800A0B90D080000000000B90D0800B90D0800D9
S2140800B0B90D0800B90D0800B90D0800B90D0800FB
S2140800C0B90D0800B90D0800B90D0800B90D0800EB
S2140800D0B90D0800B90D0800B90D0800B90D0800DB
S2140800E0B90D0800B90D0800B90D0800B90D0800CB
S2140800F0B90D080010B5054C237833B9044B13B175
S2140801000448AFF300800123237010BD240B07209A
S21408011000000000243F08000C4B43B10C4810B503
S2140801200C49AFF300800C48036823B910BD0A4891
S214080130036833B97047094B002BF7D0BDE8104069
S2140801401847064B002BF5D0184700BF00000000E4
S214080150243F0800280B0720243F08000000000062
S2140801602DE9F04180B90C469046002A0FDD8F181D
S214080170084E094D306821462B6898470134BC4222
S214080180F8D14046BDE8F0814FF0FF38F9E78046E1
S214080190F7E700BF180D0720100D072010B48901D7
S2140801A04318022444504FF0FF319962196A5A6086
S2140801B010BC7047C0F8C410704789010523435027
S2140801C07047890102234350704700EB8111086984
S2140801D0704743685A684A6042688A605A689160FD
S2140801E059604160086103680133036070474368DB
S2140801F082689A60836842685A6003695A689042BF
S21408020004BF82685A60002202611A68013A1A60BE
S21408021018687047064B19680868B0E8F00F80F34E
S21408022009884FF0000080F311884EF00D0E7047D5
S214080230400B0720EFF311804FF0A00181F31188DF
S2140802407047002080F3118870470000EFF309809C
S2140802500C4B1A6820E9F00F10602DE908404FF0A3
S214080260A00080F3118800F0B9F84FF0000080F382
S2140802701188BDE8084019680868B0E8F00F80F3F0
S21408028009887047400B072008B54FF08052054B89
S2140802901A60054B9847054B98470020044B98472B
S2140802A008BD00BF04ED00E035020800B5020800EE
S2140802B0450208003D4B1B68002B6FD12DE9F04125
S2140802C03B4B1A6801321A601B68ABB9394B1B687E
S2140802D01B68002B28D1374B1968374A10681860F6
S2140802E0116036490A6801320A601B681B68FBB948
S2140802F04FF0FF32324B1A602D4B1A68304B1B6892
S2140803009A4250D32B4B1B681B68CBB1294B1B68F2
S214080310DB68DC686368264A1268934216D8294E5A
S214080320294FDFF8B4802FE0284B984700BFFDE739
S214080330204B1B68DB68DB685A68214B1A60DBE7D2
S2140803404FF0FF321E4B1A60BDE8F0811C4A13605E
S214080350BDE8F081E06A3B68984288BF386000EBE9
S2140803608000294608EB8000194B9847114B1B68FC
S2140803701B68002BE4D00F4B1B68DB68DC686368DF
S2140803800B4A12689342E1D8251D2846B047A36A4F
S214080390002BDFD004F11800B047DBE70D4A1368DE
S2140803A0013313607047BDE8F08100BFB40B072027
S2140803B0C40B0720440B0720480B0720C00B072058
S2140803C02C010720EF010800B80B072035020800AB
S2140803D0D3010800B00B07204C0B0720214B1B68E5
S2140803E0EBB910B5204B1B6803EB83039B001F4A31
S2140803F0D358C3B91C4B1B686BB11B4A1B491368FF
S214080400013B1360136803EB830351F8233053B999
S2140804101368002BF3D1164B984700BFFDE701225F
S214080420144B1A607047104B1B68104A9900C8187E
S21408043002EB800044686468446019440246083247
S214080440944209D003EB8303084A02EB83035B68F4
S214080450DA68094B1A6010BD6068044A02EB81022C
S2140804605060EFE7B40B0720B80B07204C0B0720AB
S21408047035020800BC0B0720400B0720014B185C10
S214080480704700BF30010720436913F0020F1DBFF5
S214080490C1F30801C161002001207047436913F0C9
S2140804A0010F05D08369C3F308030B60002070476B
S2140804B00120704700B583B001220DF107011048EE
S2140804C0104B984772B6BFF35F8F00220E4B1A7018
S2140804D00E4B1B789DF807100D4AD1549B2B0BD05A
S2140804E001330A4A13700122074B1A70BFF35F8F55
S2140804F062B603B05DF804FB0022044B1A70F2E7FC
S21408050000800940CD07080072010720640C072008
S214080510C80B0720F0B583B004460D4600230193A8
S214080520204B98420DD0204B984212D01F4B984231
S21408053019D01F4B9C4220D01E4B9C4227D003B09C
S214080540F0BD1F461C4E29463846B0470028FAD14B
S214080550EFE71F46194E01A93846B0470028FAD1DA
S214080560019B2B70E8E71E46144C01A93046A047AD
S2140805700028FAD1019B2B70E1E71E460F4C01A913
S2140805803046A0470028FAD1019B2B70D7E71E46B5
S2140805900A4C01A93046A0470028FAD1019B2B70C7
S2140805A0CDE700BF00080E400080094000C00940A3
S2140805B000000A4000400A40DB0808009D040800C6
S2140805C070B50C461E4B98420DD01E4B984213D061
S2140805D01D4B984219D01D4B98421FD01C4B984271
S2140805E025D0002070BD1E461A4D21463046A84725
S2140805F00028FAD1012070BD1E46174D2146304608
S214080600A8470028FAD1012070BD1E46124D214683
S2140806103046A8470028FAD1012070BD1E460E4D68
S21408062021463046A8470028FAD1012070BD1E464C
S214080630094D21463046A8470028FAD1012070BD4A
S21408064000080E400080094000C0094000000A402B
S21408065000400A40CB0808008904080030B585B079
S2140806600820154DA847154C154B1C60154A164B07
S2140806701A60164A164B1A60164B01934FF4E1336C
S21408068002934FF4006303930820A84701A9204665
S214080690114B9847114D2B6800219868104CA047BD
S2140806A02B6800215868A0470E480F4CA0470F48F3
S2140806B0A04705B030BD00BF650D080000080E4015
S2140806C0180D0720C1050800140D07201505080099
S2140806D0100D072000BD01059508080078010720C1
S2140806E08D120800603D0800DD100800703D080007
S2140806F010B51E20084B9847084C00221146204685
S214080700074B984700212046064B9847002120466D
S214080710054B9847002010BD650D080000400840AE
S2140807209D010800B5010800C3010800F8B5054694
S21408073000210948094B98472A2404FB05F4064F6C
S2140807400026074D31463846A847A042FAD300216E
S2140807500148044B9847F8BD00400840BB01080014
S214080760CB010800C301080008B54FF47A7303FBF1
S21408077000F0014B984708BD2D07080001380228ED
S21408078015D82DE9F0410E4614469AB10D46DFF805
S21408079038800C4FD8F8000015F8011B3B689847BE
S2140807A000280ADBA81B013CF4D1BDE8F0814FF015
S2140807B0FF3070471046BDE8F0814FF0FF30BDE8C7
S2140807C0F08100BF140D0720180D0720002A51D00D
S2140807D02DE9F04F83B005460C4692468A44264FCC
S2140807E0DFF8A890254E1DE021463846C847002861
S2140807F0FAD121E09B46DFF8988001A95846C04701
S2140808000028FAD1019B237019E09B46DFF8808008
S21408081001A95846C0470028FAD1019B2370013425
S214080820544523D000230193BD42DDD0144B9D428E
S214080830E0D0144B9D42E8D0134B9D420BD0B542F6
S214080840EDD1DFF84C8001A93046C0470028FAD120
S214080850019B2370E3E79B46DFF8348001A95846DE
S214080860C0470028FAD1019B2370D8E7002003B0C0
S214080870BDE8F08F0020704700080E4000400A4090
S2140808800080094000C0094000000A40DB08080054
S2140808909D04080010B4AC2303600B684A68B3FBD9
S2140808A0F2F31B095C1E4FF6FE7294420BD80362E5
S2140808B08B68436040F20223C0F82031502303605F
S2140808C0002010BC70470120FBE7436913F0020FB5
S2140808D01ABFC161002001207047436913F0010F59
S2140808E01DBF83690B7000200120704710B50E48A5
S2140808F00E4B98473E2100200D4B98470D4CA047BD
S2140809000028FCD00C4B98470C4A0D4B9A620D4CAD
S214080910A0470028FCD010200B4B98470B4B984755
S2140809200148024B984710BD00BD0105A5000720E9
S214080930E10C0800350D0800450D0800013F0D20A4
S21408094000060E40550D08007D0C0800550E0800E0
S21408095010B54FF40042164B5A600B20154CA047B2
S2140809600C20A0470D20A0470E20A0474FF060514E
S2140809703B20114CA0474FF060515520A0474FF040
S21408098060515620A0470D496820A0470C495C20B6
S214080990A0470C4A4FF440710B480C4B98474FF051
S2140809A000612B20A0474FF000612A20A04710BD09
S2140809B0501A0E40650D0800710A080079000028D4
S2140809C00100002801000008000E0E40410B080038
S2140809D04264B1F1805F16D00BD849B1B1F1006F0F
S2140809E005D1036F016F0B4023EA020303674260D9
S2140809F07047B1F1405FFBD0B1F1605FF8D0B1F15C
S214080A00205FF4D17047036F13430367EFE7416431
S214080A1012F0010F14BF4166016612F00A0F14BFE8
S214080A200162416212F0020F07D112F0080F18BFD8
S214080A30C0F88410416101607047C0F88010F9E77B
S214080A4010B4019C416444B9016643B1016542B9DA
S214080A5041630161016010BC70474166F5E7416576
S214080A60F5E70163F5E7C06C7047806C70470000D7
S214080A7070B582B00D46430903F5001303F20773F9
S214080A805C0201F0F043B3F1205F31D016D8B3F121
S214080A90006F1BD0B3F1805F16D100F01F0001264F
S214080AA0864032464FF080512046224B984715F034
S214080AB0010F14BF66662666012017E0B3F1405F93
S214080AC021D0B3F1605F1ED000200FE000F01F00B9
S214080AD00126864032464FF000612046154B98475F
S214080AE015F0010F14BF66662666012002B070BDB9
S214080AF000F01F0101262A4606FA01F120460E4B91
S214080B0098473046F2E705F0605200F01F010126CC
S214080B1005EA06030093C5F38003B2F1605F14BFCD
S214080B200022012206FA01F12046044CA04730466E
S214080B30DCE700BFD10908000F0A0800410A0800D0
S214080B4070B582B005460E46144602F0F043B3F17F
S214080B50205F27D011D8B3F1006F16D0B3F1805FAD
S214080B6011D10A464FF08051194B984714F0010FDF
S214080B7014BF6E662E66012012E0B3F1405F15D0F2
S214080B80B3F1605F12D000200AE00A464FF0006119
S214080B900F4B984714F0010F14BF6E662E6601209F
S214080BA002B070BD0B4B98470120F9E704F060527D
S214080BB004F001030093C4F38003B2F1605F14BF2E
S214080BC00022012231462846034CA0470120E7E7C9
S214080BD0D10908000F0A0800410A08002DE9F0416B
S214080BE0044688460E4B9847054620460D4B9847C0
S214080BF0054013D00C4C04F1600603E0B4420DD057
S214080C0010345DB120684045F8D161682942F5D0B6
S214080C10E3689847636825EA0305EFE7BDE8F081CF
S214080C20670A08006B0A0800680C072008B50B213D
S214080C300148024B984708BD000E0E40DD0B080021
S214080C4008B50C210148024B984708BD00100E4015
S214080C50DD0B080008B50D210148024B984708BD72
S214080C6000120E40DD0B080008B50E210148024BA5
S214080C70984708BD00140E40DD0B0800174A136B92
S214080C8023F0700318431063936E13F0080F0AD10D
S214080C904FF4006311498A6E12F0080F03D1013B26
S214080CA0F9D1012070470D4A136B23F0030343F074
S214080CB002031363936E13F0080F0AD14FF4006310
S214080CC006498A6E12F0080F05D1013BF9D10120BA
S214080CD07047002070470020704700BF00060E408F
S214080CE0C8B9114A136A090289B223F45C1323F0BF
S214080CF0030343F45C1343F001030B431362936E40
S214080D0013F0010FFBD0084A136A43F09B7343F4B1
S214080D1080331362704704490B6A044A1A40044B2E
S214080D2013430B62704700BF00060E40FCFFC8FE68
S214080D3002003701024B986E00F48030704700BFFF
S214080D4000060E404FF00052014B9A62704700BFF3
S214080D5000060E40024B986E00F00200704700BF77
S214080D6000060E402C281ED81F280CD8114B9A694E
S214080D7001238340934318D0012303FA00F00D4B58
S214080D8018610020704720380A4BD3F80821012341
S214080D90834093430BD0012303FA00F0054BC3F8B6
S214080DA0000100207047012070470020704700208F
S214080DB0704700BF00060E40FEE7000008B51C4B53
S214080DC01C4A9A4210D01C4B194A9A420CD2013B34
S214080DD09B1A23F0030304331344164951F8040BF3
S214080DE042F8040B9A42F9D1144B154A9A420AD291
S214080DF0013B9B1A23F0030304331344002142F8F3
S214080E00041B9342FBD10F4B23F0604222F07F0273
S214080E100D498A6003F16043B3F5801F03D28B68DF
S214080E2043F000538B60094B9847094B9847FEE7F9
S214080E3000000720243F0800240B0720200D072069
S214080E40240B07200000080000ED00E08D100800C5
S214080E50BD0F08003D4B1B6B03F00303032B0ED896
S214080E60DFE803F0021C3838394B5B6913F0800F53
S214080E7014BF4FF400424FF4FA42364B1A60334B15
S214080E801B6B03F07003702B57D0304B1A6B31492D
S214080E90C2F302120B68D3400B6070472B4B1B6AD9
S214080EA013F0807F03D02C4A2A4B1A60E7E72B4AB8
S214080EB0284B1A60254B1B6A03F07003102B05D0CD
S214080EC0202BDCD1244A234B1A60D8E7244A214B2E
S214080ED01A60D4E71D4B1B6A13F0807F0CD01E4A9D
S214080EE01C4B1A60194B1B6B03F00303022B16D01E
S214080EF01C4A184B1A60C2E7184A164B1A60134B5E
S214080F001B6A03F07003102B05D0202BEAD1124A77
S214080F10104B1A60E6E7124A0E4B1A60E2E70B4AD5
S214080F20916A926A0B48C1F30A41036801FB0333CE
S214080F30D2B2B3FBF2F30360A1E7064A13680A4984
S214080F40A1FB03135B081360704700BF00060E4042
S214080F50101A0E4074010720001BB70000093D0058
S214080F6000127A00001C4E0EABAAAAAA0A4B1B68EF
S214080F7053B1094B1B681A180849914208DB1046FA
S214080F80054A106018467047054A034B1A60F0E792
S214080F904FF0FF30704700BFD80C0720FC7F0820B2
S214080FA0202D07204FF0FF3070474FF400534B605A
S214080FB000207047012070470020704780B52A4BF4
S214080FC098472A4B98472A4B98470B20294CA04706
S214080FD00C20A0470D20A0470E20A047264B984778
S214080FE00D20264DA84700F01F02012404FA02F23D
S214080FF0430903F5001303F207735B021A600D201A
S214081000A847430903F5001303F207735B0200F0D1
S2140810101F0084401C61C3F8A040C826184D4FF036
S2140810200D083046A8474046144CA047430903F528
S214081030001303F207735B0200F01F00012707FA8C
S21408104000F018630F48104B98473046A8474046AC
S214081050A047430903F5001303F207735B0200F089
S2140810601F0087405F63DCE7ED08080051090800A9
S214081070F1060800650D08005D0608007D040800F6
S21408108069070800803D0800DD10080070B50F4E9F
S2140810900F4D761BB61018BF002405D0013455F83E
S2140810A0043B9847A642F9D10A4E0B4D02F024FF9E
S2140810B0761BB61018BF002406D0013455F8043B3A
S2140810C09847A642F9D170BD70BD00BF043F08001E
S2140810D0043F08000C3F0800043F08000FB410B592
S2140810E0074B82B004AC54F8042B18682346816872
S2140810F0019400F0E7F902B0BDE8104004B070476C
S21408110078010720844641EA000313F0030349D117
S214081110403A23D30B6803604B6843608B68836050
S214081120CB68C3600B6903614B6943618B69836154
S214081130CB69C3610B6A03624B6A43628B6A83623C
S214081140CB6AC3620B6B03634B6B43638B6B836324
S214081150CB6BC36340304031403ADBD230320BD3DE
S2140811600B6803604B6843608B688360CB68C3601A
S21408117010301031103AF3D20C3205D351F8043B34
S21408118040F8043B043AF9D2043208D0D2071CBF10
S21408119011F8013B00F8013B01D30B880380604639
S2140811A0704700BF082A13D38B07B1D010F003038B
S2140811B0AED0C3F10403D21ADB071CBF11F8013BFB
S2140811C000F8013BA4D331F8023B20F8023B9FE726
S2140811D0043AD9D3013A11F8013B00F8013BF9D299
S2140811E00B7803704B7843708B7883706046704733
S2140811F070B4860746D0541E002A41D0CAB20346A9
S21408120002E014F1FF343BD303F8012B9D07F8D115
S214081210032C2ED9CDB245EA05250F2C45EA0545FF
S21408122019D9264603F11002103E0F2E42F8105C1C
S21408123042F80C5C42F8085C42F8045C02F11002C2
S214081240F2D8A4F1100222F00F0204F00F041032B4
S214081250032C13440DD91E462246043A032A46F8A0
S214081260045BFAD8221F22F003020432134404F067
S21408127003042CB1C9B21C4403F8011B9C42FBD1E1
S21408128070BC704714460346C2E700BF00290CBF6F
S214081290022200224FF4806300F000B82DE9F043E4
S2140812A0504D83B02D6804460F4690461E4615B12D
S2140812B0AB6B002B77D0B8F1020F04D0B8F1010F52
S2140812C07DD8002E7BDB2146284601F03BF8216BB3
S2140812D041B104F14003994202D0284601F098F93A
S2140812E0002323630022B4F90C30A26162601A0658
S2140812F052D423F44A6323F00303B8F1020FA38100
S21408130037D001AB6A462146284601F017FCA38968
S2140813101843A08116B317B3AB6B002B4BD0009BBA
S21408132027609E42B4F90C3027611CBF43F4006363
S214081330A381B8F1010F04BF43F00103A3819BB258
S21408134013F00800666123D013F001002FD00020A8
S2140813507642A661A06003B0BDE8F083009E3046E2
S21408136001F05EFC074668B3A38943F08003A381B7
S214081370D2E700200025012104F1430243F00203CE
S214081380A381A56061612260226103B0BDE8F08395
S214081390A06003B0BDE8F0832169284601F038F95B
S2140813A0B4F90C30A5E7284601F060F883E7A66094
S2140813B003B0BDE8F083284601F058F8AFE74FF0D1
S2140813C0FF30E2E7DDF80090B14506D0484601F068
S2140813D027FC074608B14E46C6E7B4F90C304FF06E
S2140813E0FF30C7E77801072020F0030110F003005C
S2140813F0C0F1000051F8043B00F1040C4FEACC0C95
S2140814006FF000021CBF22FA0CF213434FF0010CD7
S2140814104CEA0C2C4CEA0C4CA3EB0C0222EA030216
S21408142012EACC1204BF51F8043B0430F4D0C2F1DF
S214081430000102EA0102B2FA82F2C2F11F0200EBD0
S214081440D20070472DE9F84F4B6E93469C042FD573
S2140814509368126853B30E46074602F1080919E95D
S21408146020045FEA9A0817D00024043D01E0A0454E
S21408147010D0324655F8041F384601F067F8431C6A
S21408148004F10104F3D10023CBF80830CBF804307C
S214081490BDE8F88FDBF808302AF0030AA3EB0A0346
S2140814A0CBF8083009F10809002BD8D10020EAE764
S2140814B001F094F90023CBF80830CBF80430BDE8E7
S2140814C0F88F00BF2DE9F04FADB01D46019191464B
S2140814D00893069018B1836B002B00F0E080019CFF
S2140814E0B4F90C0081B28B0407D4636E40F4005143
S2140814F023F40053A181636689B20F0740F1B180D7
S214081500019B1B69002B00F0AC8001F01A010A2928
S21408151000F0B58000230DF1700AD3460B930493B0
S21408152011931093CDF83CA099F800304C46FBB1C7
S214081530252B02D11CE0252B03D014F8013F002BE5
S214081540F9D1A4EB09059DB1109B119A01332A44E1
S214081550072BCBF80090CBF80450119210937ADD45
S214081560002A40F09384D346049B10922B4404939D
S2140815702378002B00F0B68300204FF0000304F118
S21408158001098DF8373062780646054603464FF05F
S214081590FF3409F10109A2F12001582900F20A8353
S2140815A0DFE811F03F0208030803E7020803080310
S2140815B008030803080308038000EC0208038800F1
S2140815C07F020803D601DB01DB01DB01DB01DB015F
S2140815D0DB01DB01DB01DB01080308030803080362
S2140815E00803080308030803080308034702080358
S2140815F00803080308030803080308030803080386
S21408160008034E02080308030803080308035202E7
S214081610080308035A020803080308030803080314
S21408162008030803080308030803E901FE01080382
S214081630080308030303FE010803080399020803C6
S214081640F1028D00AD02BF020803C4020803C401FC
S21408165008030803A6020BF1080B049B2B4404930B
S21408166086E7019C0698214600F05CFD002840F0BD
S2140816704583A18901F01A010A297FF44BAF019925
S214081680B1F90E30002BFFF645AF2B464A460698B2
S21408169000F012FD049004982DB0BDE8F08F00F01D
S2140816A0E5FE1CE708990A460D680432002D0892E4
S2140816B002DA6D4243F0040399F8002069E70795BB
S2140816C013F0200240F03D8413F0100140F0E98347
S2140816D013F0400200F0E58308980A460146002702
S2140816E00431068808914FF0000100258DF8371060
S2140816F0611C00F0778123F08001039156EA070108
S21408170040F07581002C40F05483002A40F0938303
S21408171013F00103059300F0428430230DF1B0085E
S21408172008F8413D059BA342B8BF234602930DB176
S21408173001330293039B13F00203099302D0029B22
S21408174002330293039B13F084030A9340F06182EA
S214081750079B029A9D1A002D40F35B82102D40F3DA
S2140817606884109BDE461027A346119AB84E194681
S214081770069C07E001F1020C01460EF1080E103D2A
S214081780102D11DD481C1032072811928EE8C00073
S2140817901090EFDD002A40F02782103D102D1146EC
S2140817A04FF0010CD646EDDC5C466146F3462A440B
S2140817B007291192CBF80060CBF80450109100F37B
S2140817C0E4829DF837500BF1080B481C002D40F0BA
S2140817D02882099B002B00F0428202210EAB0A44A5
S2140817E0072811921090CBF80410CBF8003040F37D
S2140817F03282002A40F078830A9B0120802B11460B
S214081800D34640F03082079B029D5E1B002E40F3B5
S2140818102A82102E40F32884DC461027A3468D4DD6
S214081820069C07E001F1020E01460CF1080C103E7A
S214081830102E11DD481C1032072811928CE8A000E3
S2140818401090EFDD002A40F09382103E102E4FF0E5
S214081850010E1146D446EDDC5C46E3463244BEF142
S214081860070F11928BE86000CDF840E000F356832E
S214081870059B0BF1080BE41A002C0EF101007146CB
S21408188000F3F681059907280A441192CBF80080E0
S214081890CBF80410109040F35282002A40F0EB82F6
S2140818A0039B1092580738D5079B02995C1A002CA0
S2140818B040F3B782D346102C40F3CA8310251099FC
S2140818C0634E069FDDF8048006E0881C19460BF177
S2140818D0080B103C102C13DD4B1C1032072B1192F2
S2140818E0CBF80060CBF804501093EEDD002A40F0E9
S2140818F00982103C102C4FF001001146D346EBDC51
S214081900224407281192CBF80060CBF804401090C8
S21408191040F32082002A40F05483049B079A0299D9
S2140819208A42ACBF9B185B1804931CE207959E0678
S21408193000F113830899DD060A4600F1C5825806A9
S21408194040F1C2820E880431002701220891CAE6B7
S21408195043F0800399F800201BE60025A2F1300129
S21408196019F8012B05EB850501EB4505A2F13001B9
S2140819700929F5D90FE6012208981146029202684D
S2140819804FF000048DF848200246043207958DF87B
S2140819903740059108920DF1480803930024C9E6DC
S2140819A00795002840F07E839E0600F1EC82089991
S2140819B0DD060A4600F18182580640F17E82B1F9BA
S2140819C000600432F717304639460892002871F14D
S2140819D00002C0F2E782611C9DF837504FF0010202
S2140819E07FF489AE56EA070100F0E4810393012AE2
S2140819F000F02482022A40F0F181D0460B98330981
S214081A0043EA0773390906F00F020F461E46835C41
S214081A1008F8013D56EA0703F1D1AAEB0803059337
S214081A2080E699F80020002E7FF4B3AD012020262A
S214081A30AFE50795002840F0328343F01003B3E77C
S214081A40079543F010033BE6079543F010036EE74F
S214081A50C43D0800D43D08000795002840F01683CA
S214081A60AE490B919F0600F184820898DE0601466F
S214081A7000F11E825D0640F11B82002704310688AD
S214081A800891D80740F1D58156EA070100F0D181C0
S214081A9030218DF8392043F002038DF838100222E1
S214081AA021E699F8002009F101072A2A00F0E082C9
S214081AB0A2F130010929B9464FF000043FF66BAD94
S214081AC019F8012B04EB840401EB4404A2F130015D
S214081AD00929F5D95FE599F800206C2A03BF99F81B
S214081AE0012043F0200309F1010943F0100350E5F3
S214081AF00795002840F0D08289490B91B2E77822F2
S214081B0030210795089D8DF839202A1D0892844AA9
S214081B102E680B9243F002038DF838100027022235
S214081B20E1E543F0200399F8002032E54FF0000283
S214081B3008990795D1F800808DF837200D1DB8F163
S214081B40000F00F07C82671C00F05B8222460021B2
S214081B504046029301F024FB029B002800F07C829A
S214081B60A0EB08020895059203939DF837500024C9
S214081B70D8E543F0010399F800200AE599F8002013
S214081B8001202B2605E5002840F08382990600F1FF
S214081B902B82DA0621D45B061FD5089A136804320E
S214081BA00892BDF810201A80BEE443F0400399F866
S214081BB00020EEE40795002840F06582002A00F031
S214081BC0918001218DF848204FF0000202918DF88F
S214081BD0372005910DF14808DFE6089A13680432A5
S214081BE00892049A1A609FE40FAA01992046FFF704
S214081BF029FC00287DD11099D646119A01F1010CCE
S214081C00BDE50FAA01990698FFF71CFC002870D1BD
S214081C10D34610999DF83750119A481C002D3FF46A
S214081C20D8AD01210DF137050A4407281192109006
S214081C30CBF80410CBF8005040F3B680002A40F0EA
S214081C406081099B002B3FF4D7AD02220846D34695
S214081C500EAB1D921C9301460BF1080B01300A9B34
S214081C60802B3FF4D0AD059BE41A002C7FF70AAE14
S214081C70102C40F3B781DE4610262A4D069FDDF865
S214081C8004B006E0881C19460EF1080E103C102C0D
S214081C900FDD4B1C1032072B11928EE86000109354
S214081CA0F0DDA2B9103C102C4FF001001146D646C4
S214081CB0EFDCF346224407281192CBF80050CBF805
S214081CC00440109030DC0BF1080B0130DAE50FAA5F
S214081CD059463846FFF7B6FB58B91099D646119AB2
S214081CE0481CD3E7119B23B106980FAA0199FFF762
S214081CF0A9FB019B9B895B067FF5CDAC4FF0FF33B4
S214081D000493C8E40FAA41463846FFF79BFB002811
S214081D10EFD11099D346119A481CDAE5943D08008D
S214081D20A83D0800D43D0800002A40F0FD800123A5
S214081D30D346059ACDF870801D92119210930BF138
S214081D40080B039B590705D5079B02995C1A002CBC
S214081D503FF7B1AD049B079902988142ACBF5B1868
S214081D601B1804937ABB0023D3461093FFF7DCBBFB
S214081D700FAA01992046FFF765FB0028B9D11099EC
S214081D80D446119A01F1010E51E5002A7FF439AFC5
S214081D909DF83710002900F00E810122D346104620
S214081DA00DF137011D921C9101460BF1080B01300D
S214081DB00FE5039B012A00F08E80022A0BD10393BD
S214081DC00026002719E60FAA01990698FFF73AFB9E
S214081DD00028C8D08DE7002600270393514600E068
S214081DE04146F20842EA4772F80806F00703074633
S214081DF01646303356EA070201F8013C01F1FF386F
S214081E00EED1039AD6077FF508AE302B3FF405AE21
S214081E103023023908F8013CAAEB010305938846EB
S214081E2080E4049B079A8A42ACBF9B185B1804930D
S214081E3099E7022257E40594D04673E4002F08BFBA
S214081E400A2E47D3D046304639460A22002301F0E8
S214081E50FFFD303208F8012D3046394600230A22A5
S214081E6001F0F6FD06460F4656EA0703EBD1AAEB45
S214081E700803059356E40FAA01990698FFF7E2FAB5
S214081E8000287FF436AFD346119A5AE70FAA01996D
S214081E900698FFF7D7FA00287FF42BAFD346FFF74C
S214081EA0DCBB0898002701460431066808911AE446
S214081EB00E68043108910027E3E516680432F71720
S214081EC008923046394681E5043116680027012213
S214081ED0089108E4039B039301230DF1B0083036FC
S214081EE008F8416D05931DE40FAA01990698FFF7B7
S214081EF0A9FA00287FF4FDAE1099D346119A481C1B
S214081F00ADE60FAA01990698FFF79CFA00287FF419
S214081F10F0AE1099D346119A481C5AE4002A7BD191
S214081F2001201146D3469EE60FAA01990698FFF7A8
S214081F3089FA00287FF4DDAE1098D346119A01304E
S214081F40A0E4089D073525F0070202F10801D2E94A
S214081F50006708910022FFF7C6BB089D073525F0E5
S214081F60070202F10801D2E9006708910122FFF78B
S214081F70BABB089D073525F0070101F1080008904F
S214081F80D1E900677DE5089D073525F0070505F1C9
S214081F900802D5E90001089206460F4616E5D0461F
S214081FA0FFF7C0BB2D25764267EB47078DF83750FD
S214081FB00122FFF79DBB099B6BB911460120D3464A
S214081FC051E60FAA01990698FFF73CFA00287FF415
S214081FD090AE119ABEE602220EAB1D921C9301200B
S214081FE0D34638E6314D65E6089A13460433089317
S214081FF0049B1168DD171A462B46C1E90023FFF734
S21408200093BA404608950393FFF7EEF90024059027
S2140820109DF83750FFF786BB0FAA01990698FFF779
S21408202011FA00287FF465AE1099D346119A481C19
S21408203019E61099119A01311D4EFFF7B8BB062C08
S21408204028BF0624089505940294DFF86880A4E45F
S2140820501098174E013053E40594089503930446E8
S2140820609DF83750FFF75EBB8646104DFFF7F6BB68
S214082070089999F801200C68043144EAE474B946D2
S2140820800891FFF786BA8DF8376097E58DF83760C0
S214082090E6E48DF8376079E58DF837602CE58DF83D
S2140820A03760CAE48DF837607EE400BFD43D080088
S2140820B0C43D0800BC3D080070B50C4600264FF429
S2140820C080658989ADF58D6D21F00201ADF80C109B
S2140820D00696616EE6891991ADF80E60E169666A42
S2140820E00791099669461AAE0096049602950595D4
S2140820F00646FFF7E7F9051E07DB3046694600F097
S21408210021F9002818BF4FF0FF35BDF80C305B06E4
S21408211003D5A38943F04003A38128460DF58D6DAA
S21408212070BD00BF38B5304B054618680C4610B170
S214082130836B002B38D0B4F90C2093B218070CD553
S2140821402069A8B113F001021ED000226369A260BC
S2140821505B42A361F0B1002038BDD9063BD55807CD
S21408216025D4206942F00803A3819BB20028E9D150
S21408217003F42072B2F5007FE4D02846214600F02A
S2140821800BFDA3892069DDE7990758BF6269A2603D
S2140821900028E0D1B4F90C301A06DDD543F0400328
S2140821A0A3814FF0FF3038BD00F060F9C3E7216B1C
S2140821B051B104F14003994204D0284600F028FAA9
S2140821C0B4F90C20002323630023206922F024029C
S2140821D084E80900C6E7092342F040022B604FF066
S2140821E0FF30A28138BD00BF78010720024B13B12B
S2140821F0024800F005B87047000000008124080077
S214082200002301461A46184601F028BBB1F90C30DF
S2140822102DE9F0419AB20D46110780463AD46A680D
S21408222043F40063002AAB8170DDAC6A002C4AD008
S21408223000229BB2D8F80060C8F8002013F4805239
S21408224068D02A6D5F0705D569682B6B521A0BB1E3
S214082250EB6BD21A0023E9694046A047441C3DD0E0
S2140822600021B5F90C302A6923F40063AB81DB043E
S21408227069602A6048D4296BC8F8006019B305F16C
S2140822804003994202D0404600F0C2F90020286375
S214082290BDE8F0812E69B6B1910718BF00232C68F7
S2140822A008BF6B692E60A41BAB600AE02346324663
S2140822B06F6AE9694046B8470028A4EB000406445C
S2140822C004DD002CF2DC0020BDE8F081AB894FF07D
S2140822D0FF3043F04003AB81BDE8F081D8F80040FA
S2140822E01D2CF3D8164BE340DB4313F00103EDD166
S2140822F0B5F90C20296922F40062AA81D2046B6021
S2140823002960B8D5002CB6D12865B4E7EA6B002A50
S2140823108BDCD8E70123E9694046A047431C024600
S21408232002D0AB89AC6A8DE7D8F80030002BF8D01D
S2140823301D2B01D0162BC9D1C8F80060C3E700BF13
S2140823400100402010B5044682B008B1836B53B133
S214082350B1F90C0008B902B010BD204602B0BDE8BD
S2140823601040FFF753BF019100F080F80199EFE79E
S214082370014900F0ADBB00BF2D3908002DE9F04F2C
S21408238007460024042303217D68334807F53B727B
S214082390F863C7F8E412C7F8E822C7F8E04283B043
S2140823A02C606C60AC606C66EC812C616C61AC6116
S2140823B0AB81214605F15C000822FEF719FF0123D0
S2140823C00922BE68DFF894B0DFF894A0DFF894908E
S2140823D0DFF89480C5F820B0C5F824A0C5F8289082
S2140823E0C5F82C80ED612146F381B28106F15C00C8
S2140823F034607460B460746634617461B4610822D1
S2140824000193FEF7F5FE12200222FD682146F661CA
S214082410C6F820B0C6F824A0C6F82890C6F82C80BF
S214082420A881EA812C606C60AC606C662C616C617B
S214082430AC6105F15C000822FEF7DAFE019BED614F
S214082440C5F820B0C5F824A0C5F82890C5F82C8093
S214082450BB6303B0BDE8F08F712308008D36080013
S214082460B1360800ED3608000D370800836B03B157
S2140824707047FFF783BF00BF704700BF704700BFB5
S21408248038B50A4C0A4D641BA4100AD004F18043E0
S214082490013B05EB8305013C55F804399847002CA9
S2140824A0F9D1BDE8384001F031BD00BF1C3F080037
S2140824B0183F08002DE9F04383B0074688461446BF
S2140824C000F02EFB012833D0424604F15C0301A934
S2140824D0384601F077F9421C064622D090B39DF89C
S2140824E0041000250DF1040908E023685A1C226030
S2140824F019700135B54225D215F80910A368013BB5
S214082500002BA360F1DAA269934201DB0A29ECD119
S2140825102246384601F0FEF8431CEAD103B0BDE86F
S214082520F083A38943F04003A38103B0BDE8F0839A
S21408253008F1FF33FE2BC7D85FFA88F106468DF8F8
S2140825400410CEE7404603B0BDE8F083B2F90C307D
S21408255013F4005F0AD110B4546E43F4005344F4E5
S21408256000545466938110BCFFF7A4BFFFF7A2BFC0
S214082570F8B50C46234F064600F0BCFEBB68C4F50B
S2140825807E615D680F3125F00305294421F47F61DB
S21408259021F00F01A1F58054B4F5805F07DB002118
S2140825A0304601F061F8BB682B44984204D03046A8
S2140825B000F0A2FE0020F8BD6142304601F054F853
S2140825C001300DD0104BBA6819682D1B45F001056F
S2140825D03046091B5560196000F08EFE0120F8BDD4
S2140825E00021304601F040F8BA68831A0F2BDEDD6A
S2140825F0064C0549246843F00103001B5360086035
S214082600D5E700BF14070720DC0C07201C0B0720A3
S214082610002944D02DE9F0410D46804600F06AFEB8
S21408262055F8047C6949A5F1080427F00103E21867
S2140826308E685068B24220F003005ED0FE075060F5
S2140826400BD455F8087C01F1080EE41BA5683B443A
S21408265075456DD0E768EF60BD6015186D68ED07C5
S2140826603ED543F001026260E350B3F5007F17D20F
S2140826700122DB0898104D68134451F833708240E5
S21408268001EBC3002A430838E060A7604A6041F8B7
S2140826903340FC604046BDE8F04100F02DBE704770
S2140826A05A0A042A52D89A0902F13907FF0002F199
S2140826B03805C819CA59083890424FD0516821F0D1
S2140826C003018B4232D292689042F7D1C368A06069
S2140826D0E3609C60C4604046BDE8F04100F00CBE74
S2140826E095683B4F0344BD4240D0D06843F0010292
S2140826F0E86085606260E350B7E7FF07034407D4E5
S21408270055F8085C641BE268A0682B44C2609060B9
S214082710304A43F001001268606093428C60B9D377
S2140827202D4B40461968FFF723FFB3E71046CDE761
S21408273011184968C90744D491680344D26843F01D
S2140827400100CA6091606060E350A3E7142A16D8B7
S21408275002F15C07FF0002F15B05AAE70123AA1055
S2140827604D6893402B434B600346B0E743F00102A5
S2140827704C610C61E560A5606260E3508AE7542A04
S21408278006D81A0B02F16F07FF0002F16E0590E7F4
S214082790B2F5AA7F06D8DA0B02F17807FF0002F135
S2140827A0770586E740F25450824206D89A0C02F122
S2140827B07D07FF0002F17C057BE74FF47E777E25D8
S2140827C077E743F001016160136063E714070720A9
S2140827D01C070720200B07200C0D07209368002BEA
S2140827E071D02DE9F04F8B8983B00C4619070090FD
S2140827F0164625D522691AB313F0020035682BD081
S2140828004FF00009B0464F46DFF8C0A2002F55D05B
S21408281057453B464A4628BF5346E1690098666ACC
S214082820B047002856DDD8F8083081441B1A3F1AEE
S214082830C8F80830002BE9D1002003B0BDE8F08FB7
S21408284021460098FFF76EFC002840F03581A389E2
S214082850356813F00200D3D113F0010944D14F466E
S214082860019637B39A05D4F8088040F18580474525
S214082870C346C0F0AD8013F4906F40F0AE80BA4601
S21408288020685A46494600F0D1FCA2682368A2EBA5
S21408289008025B44A2602360019AD1449368A7EBC0
S2140828A00A07A3EB0A039360002BC5D0A389002F61
S2140828B0D8D1D5F800906F680835D2E7D5F80090DB
S2140828C06F680835A2E70020704721460098FFF792
S2140828D039FD78B3B4F90C304FF0FF3043F04003BD
S2140828E0A38103B0BDE8F08F814633464E46A8461E
S2140828F09A464D4656B3002832D0B145CB4628BF37
S214082900B346206823695F469842626904D9A3687B
S21408291013449B4500F3A88093454DDB1346676A2E
S2140829202A46E1690098B847071ED3DDB9EB0709C0
S214082930CBD00120DAF808303D44DB1BF61BCAF87A
S2140829400830002B3FF478AF002ED4D108F10803E6
S21408295053F8046C984653F8085C0833002EF7D0F2
S21408296032460A21284600F01BFC002800F0A18009
S2140829700130A0EB0509C0E720682369984202D811
S21408298063699F425DD2B84528BFB8464946424665
S21408299000F04CFCA3682268A3EB08034244A3603B
S2140829A022600BB1C24677E721460098FFF7CAFCBB
S2140829B000288FD1C2466FE75A46294600F036FCF3
S2140829C0A2682368A2EB0B025B44A2602360ADE713
S2140829D0B846BA46BB46206853E76269206821694C
S2140829E002EB4208A0EB010A08EBD8780AF10100CE
S2140829F04FEA680838444045424684BF8046424607
S214082A005B0544D51146009800F012F98346002865
S214082A1055D052462169FEF775FBA38923F49063C7
S214082A2043F08003A3810BEB0A00A8EB0A03C4F863
S214082A3010B0C4F814802060A360B846BA46BB46F7
S214082A401FE76FF00042BA4228BF3A4692FBF3F2FD
S214082A50E16903FB02F300984A46666AB047B0F19C
S214082A60000A3FF719AF35E71A462946019300F0E2
S214082A70DDFB2268019B21461A4422600098FFF776
S214082A8061FC019B00287FF425AF1F464EE700989F
S214082A9000F034FC83460028C5D1009D21692846ED
S214082AA0FFF7B6FD0C22B4F90C302A6023F0800339
S214082AB012E706F1010920E74FF0FF30BDE60C22C9
S214082AC00099B4F90C300A6006E700BF00FCFF7FE7
S214082AD02DE9F84310F538761ED0884607464FF09D
S214082AE000097568B468013D10D4A389013D012B1F
S214082AF008D9B4F90E30013304D021463846C04709
S214082B0049EA00096B1C04F16804EED13668002E09
S214082B10E7D14846BDE8F883B1464846BDE8F8839D
S214082B20044B054A1B685B6B002B08BF134693F8DB
S214082B302801704778010720A805072070B50C46BD
S214082B40B1F90E1090B0002915461E4614DB01AAEE
S214082B5000F02CFF00280FDB029A4FF4806302F483
S214082B607042A2F50052B2FA82F24FF4006052099F
S214082B7032602B6010B070BD0023A289336012F05B
S214082B80800004D0402218462A6010B070BD4FF46A
S214082B9080632B6010B070BD8A890B46920706D5F5
S214082BA0012103F1430259611A601A617047F0B5B2
S214082BB083B001AB6A460C460546FFF7BFFF00998F
S214082BC00646284600F034F8B4F90C30D0B19DE833
S214082BD00600124F43F08003EF63A3812060206154
S214082BE061611AB93343A38103B0F0BD2846B4F92E
S214082BF00E1000F0EFFEB4F90C300028F2D043F0C7
S214082C000103EFE79A05EFD4012104F1430243F0EC
S214082C100203A381616122602261E5E7712308004F
S214082C20024B0146186800F003B800BF7801072079
S214082C302DE9F04F01F10B06162E83B0054640F23B
S214082C409E8036F0070600F1BD80B14200F2BA80D9
S214082C5000F050FBB6F5FC7FC0F08582730A00F0E2
S214082C60B880042B00F26C81B30903F1390003F134
S214082C70380EC100B84F39444C680839A14206D10D
S214082C800CE0002A80F2AB80E468A14206D06368B4
S214082C9023F003039A1B0F2AF3DD70463C69DFF81E
S214082CA0CCE2744500F09E81636823F003039A1B08
S214082CB00F2A00F38381002AC7F814E0C7F810E04B
S214082CC080F29180B3F5007F80F054810122DB0802
S214082CD079684FEAA30C134457F8338002FA0CF2CB
S214082CE007EBC30C0A43ACF10801E160C4F808809E
S214082CF07A6047F83340C8F80C40012483109C409B
S214082D0094427DD8144206D120F003006400144291
S214082D1000F10400FAD007EBC009CC468046DCF880
S214082D200C309C4507D15FE1002A80F26D81DB6894
S214082D309C4500F05981596821F003018A1B0F2A27
S214082D40F2DDDC68D3F808C046F0010828461E44C1
S214082D5042F00105C3F80480CCF80C40C4F808C05B
S214082D607E613E61C6F80CE0C6F808E075605A5009
S214082D70009300F0C1FA009B03F108041EE0102936
S214082D8020D800F0B7FA102618230220724F3B44CA
S214082D905C68A3F10802944200F02F816368E1683A
S214082DA023F0030323445A68A66842F00102F16040
S214082DB028468E605A6000F09FFA0834204603B012
S214082DC0BDE8F08F00240C2320462B6003B0BDE836
S214082DD0F08F40204FF400714FF03F0E4AE723442F
S214082DE05A68E168E0E723445A68284642F0010238
S214082DF05A60083400F080FA204603B0BDE8F08F29
S214082E00BC68636823F00308B04504D3A8EB060340
S214082E100F2B00F38580DFF85891504BD9F8002027
S214082E201B680132334404EB080A00F0548103F5AA
S214082E3080530F3323F47F6B2BF00F0B594628462D
S214082E4000F012FC411C024600F0FB80824500F2AE
S214082E50F680434B19685944196000F04C81D9F83C
S214082E60000001301BBFA2EB0A0A5144C9F8002033
S214082E70196012F0070100F01481C1F10800C1F5CD
S214082E8080510244083102EB0B09C9F30B09A1EB88
S214082E900909494628460193009200F0E5FB431CC1
S214082EA09DE80C0000F04281801A484440F001007A
S214082EB01968BC424944BA601960506017D0B8F126
S214082EC00F0F40F2FA804FF0050C6268A8F10C006C
S214082ED020F0070002F0010204EB000E02430F2860
S214082EE06260CEF804C0CEF808C000F216811D4B0A
S214082EF0BC681A68914288BF19601B4B1A689142D1
S214082F00626888BF196022F003029642A2EB0603A5
S214082F1001D80F2B04DC284600F0EEF900244DE714
S214082F2046F0010243F00103264462602846BE606C
S214082F300834736000F0E0F9204603B0BDE8F08F6F
S214082F40142B70D9542B00F2A280330B03F16F00B8
S214082F5003F16E0EC1008DE6140707200C0D07203E
S214082F60DC0C0720040D0720080D07201C07072087
S214082F701C0B07205A0A042A5BD9142A00F2AE80D2
S214082F8002F15C01C9005B3207EB010C7958ACF121
S214082F90080C8C4500F088804A6822F003029342A9
S214082FA073D289688C45F7D1DCF80C307A68E36010
S214082FB0C4F808C09C60CCF80C409EE646F0010CAD
S214082FC042F001012644C4F804C028467E613E61EA
S214082FD0C6F80CE0C6F808E07160E25000F08CF91C
S214082FE00834EBE67A6888E608F1010818F0030F5B
S214082FF00CF1080C7FF493AE2DE0DC68A34208BF02
S21408300002303FF44BAEC9E61C4619444A68DB68F2
S21408301054F8086F42F001024A602846F3609E6042
S21408302000F06AF9CAE603F15C0003F15B0EC10022
S21408303020E69A0902F13901C9003832A4E7BC42F1
S21408304054D0BC68626822F003025EE759F8083973
S214083050994540F0868010F0030F00F1FF30F5D157
S2140830607B6823EA04037B6064009C423FF6C8AE94
S214083070002C3FF4C5AE1C4240467FF44CAE6400BC
S2140830801C4200F10400FAD045E68C468CE7B3F5FE
S214083090AA7F15D8F30B03F1780003F1770EC10069
S2140830A0E8E54FF48051EEE601217B68921001FABC
S2140830B002F21A437A60634679E7012353602AE7E7
S2140830C040F25452934222D8B30C03F17D0003F128
S2140830D07C0EC100CEE503F1100BAFE6542A29D8C2
S2140830E01A0B02F16F01C9006E324DE7204B1968C2
S2140830F059441960B3E6CAF30B0000287FF4AFAE54
S21408310008EB0B03BA6843F001035360EFE67F2031
S2140831104FF47E714FF07E0EACE504F108012846A8
S2140831200093FFF775FA009B1968E0E601204FF058
S2140831300009BDE6B2F5AA7F05D8DA0B02F17801D8
S214083140C900773220E740F254518A4205D89A0CD3
S21408315002F17D01C9007C3216E74FF47E717E22AB
S21408316012E77B6880E7F00806F108030EE600BF62
S214083170DC0C072082B049B15AB16BB113780B60EA
S2140831801278101C18BF012002B0704701A9002A47
S214083190F3D1104602B070476FF00100F4E700BFA5
S2140831A0830770B4CDB23DD0541E0AB30378AB4241
S2140831B01FD0431C05E014F1FF3419D30278AA4245
S2140831C017D013F0030F184603F10103F3D1032CAD
S2140831D011D84CB30378AB420BD00444431C02E02E
S2140831E00278AA4205D09C42184603F10103F7D19B
S2140831F0002070BC7047090289B2294341EA0141A0
S214083200036806464B40A3F1013222EA030313F093
S214083210803F00F1040003D1043C032CF0D8D8E723
S2140832203046D7E71446D2E72046E2E78842F0B5AC
S2140832300DD98B1898420AD28418002A51D02246F3
S21408324013F8014D994202F8014DF9D1F0BD0F2A45
S21408325048D941EA00039B0746D1154600F11004F9
S21408326001F1100353F8106C103D44F8106C53F835
S2140832700C6C0F2D44F80C6C53F8086C04F1100411
S21408328044F8186C53F8046C03F1100344F8146CF3
S214083290E8D8A2F1100323F00F0302F00F0E103344
S2140832A0BEF1030F1944034421D90E4674461D1F68
S2140832B056F8047B043C032C45F8047FF8D8AEF196
S2140832C0040424F0030404342144234402F00302D3
S2140832D062B1013B0A4411F8014B8A4203F8014FD8
S2140832E0F9D1F0BD0346F3E70346F2E7F0BD7246B0
S2140832F0EEE700BF704700BF704700BF002900F028
S21408330094802DE9F04F0C46154683B0804605F1AB
S2140833100B06FFF7EFFF54F804EC162E2EF0030703
S214083320A4F108093CD810221646B5423DD8974263
S21408333043DAC64B09EB07009968884200F0C38059
S214083340436823F0010101444968C9074DD51EF0BA
S214083350010F00F09B8029464046FFF769FC0546AA
S21408336000283BD054F8043CA0F1080223F00103DF
S2140833704B449A4200F02B813A1F242A00F2188107
S214083380132A00F2EB80034622461168196051683A
S214083390596092689A6021464046FFF739F91DE061
S2140833A026F00706002E3246BFDA00250C232846EC
S2140833B0C8F8003003B0BDE8F08F2546BB1B0F2BBE
S2140833C0D9F804201DD802F001023A4309EB070198
S2140833D0C9F804204B6843F001034B604046FFF7EA
S2140833E08BFF284603B0BDE8F08F23F00303F918D7
S2140833F091421DDBC36882682546D3600F469A60F3
S214083400DCE702F0010209EB060143F00103324350
S214083410C9F804204F444B607B68083143F0010329
S2140834207B604046FFF7F4F8D8E71146FFF700BC84
S2140834301EF0010F8FD154F8081CA9EB010ADAF820
S214083440041021F003010B443B44934226DB554607
S214083450C16880683A1FC160886055F8080FDAF8B6
S2140834600C10242AC160886026D8132A40F281806E
S21408347021681B2ACAF808106168CAF80C1000F2FE
S214083480AD8004F108000AF1100274E054F8083C14
S214083490A9EB030ADAF8041021F003017B1893421B
S2140834A0FFF659AF5546DAF80C1055F8080F3A1FCC
S2140834B0242AC1608860D8D9214628461F46D146A6
S2140834C0FFF7B4FE7AE7416806F1100021F0030B17
S2140834D0BB44834558DA1EF0010F7FF43CAF54F81E
S2140834E0081CA9EB010ADAF8041021F003018B4442
S2140834F05845D3DC5546DAF80C1055F8080F3A1F2D
S214083500242AC160886000F28D80132A40F28780E2
S21408351021681B2ACAF808106168CAF80C1000F25D
S214083520888004F108010AF11002086810604868EB
S214083530506089689160ABEB06020AEB060142F020
S214083540010299604A60DAF80430404603F0010345
S2140835501E43CAF80460FFF7CFFE42E723681B2A1B
S21408356003606368436027D800F1080304F1080283
S2140835700BE720462A4601681F4611604168D14677
S21408358051608368936019E7ABEB060B09EB0601FD
S2140835904BF0010299604A6054F8043C404603F038
S2140835A001031E4344F8046CFFF7A6FE254618E7F9
S2140835B02146FFF73BFEEEE6A368242A8360E3680D
S2140835C0C36018D000F1100304F11002DDE650F8CD
S2140835D0043C254623F003031F44EFE6A168242A8B
S2140835E0CAF81010E168CAF814100DD004F11000DB
S2140835F00AF11802BFE7226900F11803026161693F
S21408360004F118024161C0E6226904F11800CAF8FC
S214083610182061690AF12002CAF81C10ABE7214697
S2140836202A4682E7214628460193FFF7FFFD019BBD
S21408363081E7A168242ACAF81010E168CAF81410AD
S21408364006D004F110010AF118026EE714070720E5
S214083650226904F11801CAF8182060690AF12002E4
S214083660CAF81C0061E700BF38B50023064C0546BB
S21408367008462360FDF77AFC431C00D038BD236853
S214083680002BFBD02B6038BD1C0D072010B50C4650
S214083690B1F90E1000F0C6F9002803DB236D0344C9
S2140836A0236510BDA38923F48053A38110BD00BFF2
S2140836B02DE9F0410C46B1F90C101F46CB0516460D
S2140836C0054607D5B4F90E100223002200F094F937
S2140836D0B4F90C1021F48051A1813B463246B4F966
S2140836E00E102846BDE8F04100F0A2B810B50C460A
S2140836F0B1F90E1000F080F9A389421C0EBF23F41E
S214083700805343F480532065A38110BDB1F90E1091
S21408371000F0FAB8F8B50D461446064610B1836BA5
S214083720002B4BD0B4F90C20A36991B20807A3600C
S21408373039D52369002B36D0EDB289042F4615D526
S21408374022686169D31A8B421CDA0133A168501CBF
S2140837500139A1602060157062699A421AD0A3895F
S214083760DB0701D50A2D15D03846F8BD616E42F440
S214083770005221F40051A281226861666169D31A59
S2140837808B42E2DB21463046FEF7DCFD40B90123DA
S2140837902268DBE721463046FEF7D4FD0028E3D052
S2140837A04FF0FF37E0E721463046FEF7BBFC00281F
S2140837B0F6D1B4F90C20236991B2BDE7FEF756FEA0
S2140837C0B0E700BFF0B5064685B01F4689B1104C75
S2140837D0104D2468646B002C08BF2C46D4F8E040D3
S2140837E0A047431C03D100228A233A60336005B001
S2140837F0F0BD0C46064A074D116822464C6B01A9D7
S214083800002C08BF2C46D4F8E040A047E9E700BFE4
S21408381078010720A805072019B1FF2A03D80A70DF
S2140838200121084670478A234FF0FF310360F8E706
S214083830F8B50E460025084C114607461A46304687
S2140838402560FCF79BFF431C00D0F8BD2368002BBF
S214083850FBD03B60F8BD00BF1C0D07202DE9F047E4
S214083860274C074626688846D6F848419246994621
S214083870002C3CD065681F2D1ADC05F1010E7FB1BF
S214083880012004EB8503C3F888A0D4F8881100FA51
S21408389005F21143022FC4F88811C3F8089120D006
S2140838A00235C4F804E0002044F82580BDE8F08717
S2140838B0144B0BB34FF4C870FFF7B2F90446D8B1EF
S2140838C00020D6F848314FF0010E606023600546A8
S2140838D0C6F84841C4F88801C4F88C01002FDFD028
S2140838E0CEE7D4F88C311A43C4F88C21D8E706F50D
S2140838F0A674C6F84841BDE74FF0FF30BDE8F0872C
S214083900903D0800212C080038B50023064C0546D3
S21408391008462360FDF746FB431C00D038BD2368E5
S214083920002BFBD02B6038BD1C0D072070B539B1B5
S21408393005460C4608B1836B83B3B4F90C3013B94B
S2140839400026304670BD21462846FEF75FFCE36A2F
S214083950064633B1E169284698470028B8BF4FF0B5
S214083960FF36A3891B061CD4216B41B104F1400322
S214083970994202D02846FEF74BFE00232363616C6B
S21408398021B12846FEF744FE00236364FEF774FD63
S2140839900023A381FEF772FD304670BDFEF766FD74
S2140839A0CBE721692846FEF733FEDDE770B50D46FE
S2140839B00023074C0646114628462360FDF7F5FA0D
S2140839C0431C00D070BD2368002BFBD0336070BD4D
S2140839D01C0D072038B50023064C0546084623600C
S2140839E0FDF7E8FA431C00D038BD2368002BFBD04F
S2140839F02B6038BD1C0D0720F8B50E460025084C70
S214083A00114607461A4630462560FDF7D5FA431C88
S214083A1000D0F8BD2368002BFBD03B60F8BD00BF84
S214083A201C0D0720F8B50E460025084C114607461B
S214083A301A4630462560FCF793FB431C00D0F8BDB9
S214083A402368002BFBD03B60F8BD00BF1C0D072089
S214083A5053B94AB9002908BF00281CBF4FF0FF31E8
S214083A604FF0FF3000F07AB9ADF1080C6DE904CEDE
S214083A7000F006F8DDF804E0DDE9022304B070473C
S214083A802DE9F0478C460E460446089D002B50D17B
S214083A908A4217466CD9B2FA82FEBEF1000F0BD0E6
S214083AA0CEF1200C01FA0EF620FA0CFC02FA0EF7FC
S214083AB04CEA060C00FA0EF43A0CBCFBF2F9BBB260
S214083AC002FB19CC09FB03FA4FEA144848EA0C46ED
S214083AD0B2450AD9F61909F1FF3180F02581B245B9
S214083AE040F22281A9F102093E44A6EB0A06B6FB7B
S214083AF0F2F002FB106600FB03F3A4B244EA0644A5
S214083B00A34209D9E41900F1FF3280F00B81A342E1
S214083B1040F2088102383C440021E41A40EA094091
S214083B20002D62D0002324FA0EF42C606B60BDE8EA
S214083B30F0878B4207D9002D55D0002185E8410033
S214083B400846BDE8F087B3FA83F1002940F08F8075
S214083B50B34202D3824200F2FC80841A66EB030664
S214083B600120B446002D40D085E81010BDE8F08747
S214083B7012B90127B7FBF2F7B7FA87FEBEF1000FB6
S214083B8035D10121F61B4FEA174C1FFA87F8B6FB0A
S214083B90FCF20CFB126608FB02F0230C43EA06460E
S214083BA0B04207D9F61902F1FF3302D2B04200F24A
S214083BB0D2801A46361AB6FBFCF00CFB106608FBD9
S214083BC000F8A3B243EA0644A04507D9E41900F171
S214083BD0FF3302D2A04500F2B9801846A4EB0804C9
S214083BE040EA02409CE729462846BDE8F08707FADF
S214083BF00EF7CEF1200326FA03F24FEA174CB2FB73
S214083C00FCF11FFA87F80CFB112206FA0EF620FACA
S214083C1003F301FB08F933431E0C46EA0246B14596
S214083C2000FA0EF409D9F61901F1FF3280F08C80FB
S214083C30B14540F2898002393E44A6EB0906B6FB38
S214083C40FCF00CFB106200FB08F99EB246EA02463E
S214083C50B14507D9F61900F1FF3371D2B1456FD9CE
S214083C6002383E44A6EB090640EA01418FE7C1F157
S214083C70200722FA07F88B4048EA030326FA07F4D7
S214083C804FEA134EB4FBFEF91FFA83FC0EFB1944E9
S214083C908E4020FA07F809FB0CFA48EA06084FEAAD
S214083CA0184646EA0444A24502FA01F200FA01F66A
S214083CB008D9E41809F1FF3044D2A24542D9A9F13F
S214083CC002091C44A4EB0A04B4FBFEF00EFB1044E5
S214083CD000FB0CFC1FFA88F848EA0444A44507D9F8
S214083CE0E41800F1FF3E29D2A44527D902381C441F
S214083CF040EA0940A0FB0289A4EB0C0CCC45C2465E
S214083D00CE4615D312D055B1B6EB0A036CEB0E06A9
S214083D1006FA07F7CB401F43CE402F606E6000219F
S214083D20BDE8F0871046F7E68946DEE64645EAD25D
S214083D30B8EB020A69EB030E0138E4E77046D7E7EA
S214083D4018468FE78146BDE7114676E702383C44B9
S214083D5044E7084606E7023A3E442BE7704700BFAA
S214083D60436F6E736F6C652072656164790A000034
S214083D703D3D3D3D3D3D3D3D3D3D3D3D3D0A000013
S214083D8048656C6C6F2C20576F726C64210A0000B3
S214083D9080010720303132333435363738394142DE
S214083DA04344454600000000303132333435363758
S214083DB0383961626364656600000000286E756CB9
S214083DC06C290000202020202020202020202020D1
S214083DD02020202030303030303030303030303016
S214083DE03030303043000000504F53495800000030
S214083DF02E00000000202020202020202020282818
S214083E00282828202020202020202020202020208D
S214083E1020202020208810101010101010101010CD
S214083E2010101010100404040404040404040410FD
S214083E30101010101010414141414141010101018B
S214083E400101010101010101010101010101010155
S214083E501010101010104242424242420202020261
S214083E600202020202020202020202020202020225
S214083E7010101010200000000000000000000000D5
S214083E800000000000000000000000000000000025
S214083E900000000000000000000000000000000015
S214083EA00000000000000000000000000000000005
S214083EB000000000000000000000000000000000F5
S214083EC000000000000000000000000000000000E5
S214083ED000000000000000000000000000000000D5
S214083EE000000000000000000000000000000000C5
S214083EF00000000000000000F8B500BFF8BC08BCD1
S214083F009E467047ED21080019010800F8B500BF65
S210083F10F8BC08BC9E467047F500080088
S20C083F1C64FBFF7F01000000B2
S214083F244FF48063204A136002F5007213601F4B37
S214083F341B6A13F0807F07D11D4A1C4B1A621A4667
S214083F44936E13F0010FFBD01A4A184B1A621A46DE
S214083F54936E13F4803FFBD0144A136B23F00303C9
S214083F6443F001031363936E13F0080FFBD0124A51
S214083F740E4B9A621A46936E13F0020FFBD0112268
S214083F840A4B1A631A46936E13F0080FFBD01222D4
S214083F94064B1A631A46936E13F0080FFBD0074AAB
S214083FA4074B1A60704700BF000A0E4000060E4012
S214083FB40908370009083701013F0D2000BD01052F
S214083FC4740107201B4B984215D91B4B984219D9E4
S214083FD41A4B98421ED91A4B984223D9194B984221
S214083FE494BF4FF480634FF4A063174A136002F536
S214083FF40072136070470023134A136002F50072B8
S214084004136070474FF480730F4A136002F500720A
S214084014136070474FF400730B4A136002F500727E
S214084024136070474FF44073074A136002F5007232
S21408403413607047BFEA21017FF0FA02FF8FD003AE
S214084044FFB3C4047F4A5D05000A0E40FFFFFFFF66
S2140840540809395C1D59585756555D67683B000072
S2140840640000000000003A0E0F606162636669078C
S2140840746A414243444546474849131453525150EB
S2140840844F4E4D4C352E10181716060403023132BF
S2140840943334010000093D008001072000000000B9
S2140840A4000000006C040720D40407203C05072001
S2140840B400000000000000000000000000000000EF
S2140840C400000000000000000000000000000000DF
S2140840D400000000000000000000000000000000CF
S2140840E400000000000000000000000000000000BF
S2140840F400000000000000000000000000000000AF
S214084104000000000000000000000000000000009E
S214084114000000000000000000000000000000008E
S214084124000000000000000000000000000000007E
S214084134000000000000000000000000000000006E
S214084144000000000000000001000000000000005D
S2140841540E33CDAB34126DE6ECDE05000B00000022
S214084164000000000000000000000000000000003E
S214084174000000000000000000000000000000002E
S214084184000000000000000000000000000000001E
S214084194000000000000000000000000000000000E
S2140844C40000000000000000430000000000000098
S2140844D400000000000000000000000000000000CB
S2140844E40000000000000000430000000000000078
S2140844F400000000000000000000000000000000AB
S2140845040000000000000000430000000000000057
S214084514000000000000000000000000000000008A
S2140845240000000000000000430000000000000037
S214084534000000000000000000000000000000006A
S2140845440000000000000000430000000000000017
S214084554000000000000000000000000000000004A
S21408456400000000000000004300000000000000F7
S214084574000000000000000000000000000000002A
S21408458400000000000000004300000000000000D7
S214084594000000000000000000000000000000000A
S2140845A400000000000000001938080075310800F3
S2140845B400000000F43D0800F03D0800A43D080093
S2140845C4A43D0800A43D0800A43D0800A43D080036
S2140845D4A43D0800A43D0800A43D0800A43D080026
S2140845E4FFFFFFFFFFFFFFFFFFFFFFFFFFFF0000C8
S2140845F40100415343494900000000000000000040
S2140846040000000000000000000000000000000099
S2140846140000415343494900000000000000000020
S2140846240000000000000000000000000000000079
S2140846340000000000000000000000001407072027
S214084644140707201C0707201C0707202407072031
S214084654240707202C0707202C07072034070720E1
S214084664340707203C0707203C0707204407072091
S214084674440707204C0707204C0707205407072041
S214084684540707205C0707205C07072064070720F1
S214084694640707206C0707206C07072074070720A1
S2140846A4740707207C0707207C0707208407072051
S2140846B4840707208C0707208C0707209407072001
S2140846C4940707209C0707209C070720A4070720B1
S2140846D4A4070720AC070720AC070720B407072061
S2140846E4B4070720BC070720BC070720C407072011
S2140846F4C4070720CC070720CC070720D4070720C1
S214084704D4070720DC070720DC070720E407072070
S214084714E4070720EC070720EC070720F407072020
S214084724F4070720FC070720FC07072004080720CF
S214084734040807200C0807200C080720140807207C
S214084744140807201C0807201C080720240807202C
S214084754240807202C0807202C08072034080720DC
S214084764340807203C0807203C080720440807208C
S214084774440807204C0807204C080720540807203C
S214084784540807205C0807205C08072064080720EC
S214084794640807206C0807206C080720740807209C
S2140847A4740807207C0807207C080720840807204C
S2140847B4840807208C0807208C08072094080720FC
S2140847C4940807209C0807209C080720A4080720AC
S2140847D4A4080720AC080720AC080720B40807205C
S2140847E4B4080720BC080720BC080720C40807200C
S2140847F4C4080720CC080720CC080720D4080720BC
S214084804D4080720DC080720DC080720E40807206B
S214084814E4080720EC080720EC080720F40807201B
S214084824F4080720FC080720FC08072004090720CA
S214084834040907200C0907200C0907201409072077
S214084844140907201C0907201C0907202409072027
S214084854240907202C0907202C09072034090720D7
S214084864340907203C0907203C0907204409072087
S214084874440907204C0907204C0907205409072037
S214084884540907205C0907205C09072064090720E7
S214084894640907206C0907206C0907207409072097
S2140848A4740907207C0907207C0907208409072047
S2140848B4840907208C0907208C09072094090720F7
S2140848C4940907209C0907209C090720A4090720A7
S2140848D4A4090720AC090720AC090720B409072057
S2140848E4B4090720BC090720BC090720C409072007
S2140848F4C4090720CC090720CC090720D4090720B7
S214084904D4090720DC090720DC090720E409072066
S214084914E4090720EC090720EC090720F409072016
S214084924F4090720FC090720FC090720040A0720C5
S214084934040A07200C0A07200C0A0720140A072072
S214084944140A07201C0A07201C0A0720240A072022
S214084954240A07202C0A07202C0A0720340A0720D2
S214084964340A07203C0A07203C0A0720440A072082
S214084974440A07204C0A07204C0A0720540A072032
S214084984540A07205C0A07205C0A0720640A0720E2
S214084994640A07206C0A07206C0A0720740A072092
S2140849A4740A07207C0A07207C0A0720840A072042
S2140849B4840A07208C0A07208C0A0720940A0720F2
S2140849C4940A07209C0A07209C0A0720A40A0720A2
S2140849D4A40A0720AC0A0720AC0A0720B40A072052
S2140849E4B40A0720BC0A0720BC0A0720C40A072002
S2140849F4C40A0720CC0A0720CC0A0720D40A0720B2
S214084A04D40A0720DC0A0720DC0A0720E40A072061
S214084A14E40A0720EC0A0720EC0A0720F40A072011
S214084A24F40A0720FC0A0720FC0A0720040B0720C0
S214084A34040B07200C0B07200C0B0720FFFFFFFFB7
S208084A44000002005F
S804080DBD29
